{
  "contractName": "Campaign",
  "abi": [
    {
      "constant": true,
      "inputs": [
        {
          "name": "",
          "type": "address"
        }
      ],
      "name": "approvers",
      "outputs": [
        {
          "name": "",
          "type": "bool"
        }
      ],
      "payable": false,
      "stateMutability": "view",
      "type": "function"
    },
    {
      "constant": true,
      "inputs": [],
      "name": "manager",
      "outputs": [
        {
          "name": "",
          "type": "address"
        }
      ],
      "payable": false,
      "stateMutability": "view",
      "type": "function"
    },
    {
      "constant": true,
      "inputs": [
        {
          "name": "",
          "type": "uint256"
        }
      ],
      "name": "requests",
      "outputs": [
        {
          "name": "description",
          "type": "string"
        },
        {
          "name": "amount",
          "type": "uint256"
        },
        {
          "name": "recipient",
          "type": "address"
        },
        {
          "name": "complete",
          "type": "bool"
        },
        {
          "name": "approvalCount",
          "type": "uint256"
        }
      ],
      "payable": false,
      "stateMutability": "view",
      "type": "function"
    },
    {
      "constant": true,
      "inputs": [],
      "name": "approversCount",
      "outputs": [
        {
          "name": "",
          "type": "uint256"
        }
      ],
      "payable": false,
      "stateMutability": "view",
      "type": "function"
    },
    {
      "constant": true,
      "inputs": [],
      "name": "minimumContribution",
      "outputs": [
        {
          "name": "",
          "type": "uint256"
        }
      ],
      "payable": false,
      "stateMutability": "view",
      "type": "function"
    },
    {
      "inputs": [
        {
          "name": "owner",
          "type": "address"
        },
        {
          "name": "minContrib",
          "type": "uint256"
        }
      ],
      "payable": false,
      "stateMutability": "nonpayable",
      "type": "constructor"
    },
    {
      "constant": false,
      "inputs": [],
      "name": "contribute",
      "outputs": [],
      "payable": true,
      "stateMutability": "payable",
      "type": "function"
    },
    {
      "constant": false,
      "inputs": [
        {
          "name": "_description",
          "type": "string"
        },
        {
          "name": "_amount",
          "type": "uint256"
        },
        {
          "name": "_recipient",
          "type": "address"
        }
      ],
      "name": "createRequest",
      "outputs": [],
      "payable": false,
      "stateMutability": "nonpayable",
      "type": "function"
    },
    {
      "constant": false,
      "inputs": [
        {
          "name": "reqIndex",
          "type": "uint256"
        }
      ],
      "name": "approveRequest",
      "outputs": [],
      "payable": false,
      "stateMutability": "nonpayable",
      "type": "function"
    },
    {
      "constant": false,
      "inputs": [
        {
          "name": "reqIndex",
          "type": "uint256"
        }
      ],
      "name": "finalizeRequest",
      "outputs": [],
      "payable": false,
      "stateMutability": "nonpayable",
      "type": "function"
    },
    {
      "constant": true,
      "inputs": [],
      "name": "getBalance",
      "outputs": [
        {
          "name": "",
          "type": "uint256"
        }
      ],
      "payable": false,
      "stateMutability": "view",
      "type": "function"
    },
    {
      "constant": true,
      "inputs": [],
      "name": "getSummary",
      "outputs": [
        {
          "name": "",
          "type": "uint256"
        },
        {
          "name": "",
          "type": "uint256"
        },
        {
          "name": "",
          "type": "uint256"
        },
        {
          "name": "",
          "type": "uint256"
        },
        {
          "name": "",
          "type": "address"
        }
      ],
      "payable": false,
      "stateMutability": "view",
      "type": "function"
    }
  ],
  "bytecode": "0x6080604052600060045534801561001557600080fd5b50604051604080610e9f8339810180604052810190808051906020019092919080519060200190929190505050816000806101000a81548173ffffffffffffffffffffffffffffffffffffffff021916908373ffffffffffffffffffffffffffffffffffffffff160217905550806001819055505050610e058061009a6000396000f3006080604052600436106100af576000357c0100000000000000000000000000000000000000000000000000000000900463ffffffff16806303441006146100b45780630a144391146100e157806312065fe01461013c5780634051ddac14610167578063481c6a75146101da57806381d12c581461023157806382fde093146103235780638a9cfd551461034e578063937e09b1146103e1578063d7bb99ba1461040c578063d7d1bbdb14610416575b600080fd5b3480156100c057600080fd5b506100df60048036038101908080359060200190929190505050610443565b005b3480156100ed57600080fd5b50610122600480360381019080803573ffffffffffffffffffffffffffffffffffffffff169060200190929190505050610716565b604051808215151515815260200191505060405180910390f35b34801561014857600080fd5b50610151610736565b6040518082815260200191505060405180910390f35b34801561017357600080fd5b5061017c610755565b604051808681526020018581526020018481526020018381526020018273ffffffffffffffffffffffffffffffffffffffff1673ffffffffffffffffffffffffffffffffffffffff1681526020019550505050505060405180910390f35b3480156101e657600080fd5b506101ef6107b4565b604051808273ffffffffffffffffffffffffffffffffffffffff1673ffffffffffffffffffffffffffffffffffffffff16815260200191505060405180910390f35b34801561023d57600080fd5b5061025c600480360381019080803590602001909291905050506107d9565b60405180806020018681526020018573ffffffffffffffffffffffffffffffffffffffff1673ffffffffffffffffffffffffffffffffffffffff16815260200184151515158152602001838152602001828103825287818151815260200191508051906020019080838360005b838110156102e45780820151818401526020810190506102c9565b50505050905090810190601f1680156103115780820380516001836020036101000a031916815260200191505b50965050505050505060405180910390f35b34801561032f57600080fd5b506103386108e3565b6040518082815260200191505060405180910390f35b34801561035a57600080fd5b506103df600480360381019080803590602001908201803590602001908080601f016020809104026020016040519081016040528093929190818152602001838380828437820191505050505050919291929080359060200190929190803573ffffffffffffffffffffffffffffffffffffffff1690602001909291905050506108e9565b005b3480156103ed57600080fd5b506103f6610aca565b6040518082815260200191505060405180910390f35b610414610ad0565b005b34801561042257600080fd5b5061044160048036038101908080359060200190929190505050610ba6565b005b60008060009054906101000a900473ffffffffffffffffffffffffffffffffffffffff168073ffffffffffffffffffffffffffffffffffffffff163373ffffffffffffffffffffffffffffffffffffffff1614151561050a576040517f08c379a00000000000000000000000000000000000000000000000000000000081526004018080602001828103825260168152602001807f53656e646572206e6f7420617574686f72697a65642e0000000000000000000081525060200191505060405180910390fd5b60038381548110151561051957fe5b906000526020600020906005020191508160020160149054906101000a900460ff161515156105d6576040517f08c379a00000000000000000000000000000000000000000000000000000000081526004018080602001828103825260228152602001807f63616e277420617070726f76652072657120616c726561647920636f6d706c6581526020017f746500000000000000000000000000000000000000000000000000000000000081525060400191505060405180910390fd5b60026004548115156105e457fe5b048260040154111515610685576040517f08c379a00000000000000000000000000000000000000000000000000000000081526004018080602001828103825260298152602001807f72657175697265206174206c656173742068616c6620617070726f766572732781526020017f20617070726f76616c000000000000000000000000000000000000000000000081525060400191505060405180910390fd5b8160020160009054906101000a900473ffffffffffffffffffffffffffffffffffffffff1673ffffffffffffffffffffffffffffffffffffffff166108fc83600101549081150290604051600060405180830381858888f193505050501580156106f3573d6000803e3d6000fd5b5060018260020160146101000a81548160ff021916908315150217905550505050565b60026020528060005260406000206000915054906101000a900460ff1681565b60003073ffffffffffffffffffffffffffffffffffffffff1631905090565b60008060008060006001543073ffffffffffffffffffffffffffffffffffffffff16316003805490506004546000809054906101000a900473ffffffffffffffffffffffffffffffffffffffff16945094509450945094509091929394565b6000809054906101000a900473ffffffffffffffffffffffffffffffffffffffff1681565b6003818154811015156107e857fe5b9060005260206000209060050201600091509050806000018054600181600116156101000203166002900480601f0160208091040260200160405190810160405280929190818152602001828054600181600116156101000203166002900480156108945780601f1061086957610100808354040283529160200191610894565b820191906000526020600020905b81548152906001019060200180831161087757829003601f168201915b5050505050908060010154908060020160009054906101000a900473ffffffffffffffffffffffffffffffffffffffff16908060020160149054906101000a900460ff16908060040154905085565b60045481565b6108f1610cec565b6000809054906101000a900473ffffffffffffffffffffffffffffffffffffffff168073ffffffffffffffffffffffffffffffffffffffff163373ffffffffffffffffffffffffffffffffffffffff161415156109b6576040517f08c379a00000000000000000000000000000000000000000000000000000000081526004018080602001828103825260168152602001807f53656e646572206e6f7420617574686f72697a65642e0000000000000000000081525060200191505060405180910390fd5b60a0604051908101604052808681526020018581526020018473ffffffffffffffffffffffffffffffffffffffff16815260200160001515815260200160008152509150600382908060018154018082558091505090600182039060005260206000209060050201600090919290919091506000820151816000019080519060200190610a44929190610d34565b506020820151816001015560408201518160020160006101000a81548173ffffffffffffffffffffffffffffffffffffffff021916908373ffffffffffffffffffffffffffffffffffffffff16021790555060608201518160020160146101000a81548160ff021916908315150217905550608082015181600401555050505050505050565b60015481565b6001543410151515610ae157600080fd5b600260003373ffffffffffffffffffffffffffffffffffffffff1673ffffffffffffffffffffffffffffffffffffffff16815260200190815260200160002060009054906101000a900460ff16151515610b3a57600080fd5b6001600260003373ffffffffffffffffffffffffffffffffffffffff1673ffffffffffffffffffffffffffffffffffffffff16815260200190815260200160002060006101000a81548160ff021916908315150217905550600460008154809291906001019190505550565b6000600260003373ffffffffffffffffffffffffffffffffffffffff1673ffffffffffffffffffffffffffffffffffffffff16815260200190815260200160002060009054906101000a900460ff161515610c0057600080fd5b600382815481101515610c0f57fe5b906000526020600020906005020190508060030160003373ffffffffffffffffffffffffffffffffffffffff1673ffffffffffffffffffffffffffffffffffffffff16815260200190815260200160002060009054906101000a900460ff16151515610c7a57600080fd5b60018160030160003373ffffffffffffffffffffffffffffffffffffffff1673ffffffffffffffffffffffffffffffffffffffff16815260200190815260200160002060006101000a81548160ff02191690831515021790555080600401600081548092919060010191905055505050565b60a0604051908101604052806060815260200160008152602001600073ffffffffffffffffffffffffffffffffffffffff168152602001600015158152602001600081525090565b828054600181600116156101000203166002900490600052602060002090601f016020900481019282601f10610d7557805160ff1916838001178555610da3565b82800160010185558215610da3579182015b82811115610da2578251825591602001919060010190610d87565b5b509050610db09190610db4565b5090565b610dd691905b80821115610dd2576000816000905550600101610dba565b5090565b905600a165627a7a7230582021c633892740f1a4bd04c54404d231e68cd521ff0a5a4a20d7b1c031588445b40029",
  "source": "pragma solidity ^0.4.22;\n\ncontract CampaignManager {\n    \n    address[] public deployedContracts;\n    \n    function newCampaign (uint _minimumContribution) public {\n        address new_campaign = new Campaign(msg.sender, _minimumContribution);\n        deployedContracts.push(new_campaign);\n    }\n    \n    function getDeployedContracts() public view returns (address[]) {\n        return deployedContracts;\n    }\n    \n}\n\ncontract Campaign {\n    \n    struct Request {\n        string description;\n        uint amount; // wei\n        address recipient;\n        bool complete;\n        mapping (address => bool) approvals;\n        uint approvalCount;\n    }\n    \n    address public manager;\n    uint public minimumContribution; // wei\n    \n    mapping (address => bool) public approvers;\n    Request[] public requests;\n    uint public approversCount = 0;\n    \n    constructor (address owner, uint minContrib) public {\n        manager = owner;\n        minimumContribution = minContrib;\n        \n    }\n    \n    function contribute() public payable {\n        require(msg.value >= minimumContribution);\n        require(!approvers[msg.sender]);\n        \n        approvers[msg.sender] = true;\n        approversCount ++;\n    }\n    \n    modifier onlyBy(address _account)\n    {\n        require(\n            msg.sender == _account,\n            \"Sender not authorized.\"\n        );\n        _;\n    } \n    \n    function createRequest(string _description, uint _amount, address _recipient) \n        public onlyBy(manager) {\n        Request memory request = Request({\n            description: _description,\n            amount: _amount,\n            recipient: _recipient,\n            complete: false,\n            approvalCount: 0\n        });\n        \n        requests.push(request);\n    }\n    \n    function approveRequest(uint reqIndex) public {\n        require(approvers[msg.sender]);\n        Request storage request = requests[reqIndex];\n        \n        require(!request.approvals[msg.sender]);\n        request.approvals[msg.sender] = true;\n        request.approvalCount ++;\n        \n    } \n    \n    function finalizeRequest(uint reqIndex) public onlyBy(manager){\n        \n        Request storage request = requests[reqIndex];\n        require (!request.complete, \"can't approve req already complete\");\n        require ( request.approvalCount > approversCount / 2, \"require at least half approvers' approval\");\n        \n        request.recipient.transfer(request.amount);\n        request.complete = true;\n    }\n    \n    \n    function getBalance() public view returns(uint) {\n        return address(this).balance;\n    }\n    \n    function getSummary() public view returns (\n      uint, uint, uint, uint, address\n      ) {\n        return (\n          minimumContribution,\n          address(this).balance,\n          requests.length,\n          approversCount,\n          manager\n        );\n    }\n}",
  "sourcePath": "/Users/wzhang/Documents/dev/on-chained/OnChained/ethereum/contracts/Campaign.sol",
  "compiler": {
    "name": "solc",
    "version": "0.4.24+commit.e67f0147.Emscripten.clang"
  },
  "schemaVersion": "2.0.1",
  "updatedAt": "2018-07-18T22:53:57.994Z"
}