{
  "contractName": "ProjectManager",
  "abi": [
    {
      "constant": true,
      "inputs": [
        {
          "name": "",
          "type": "uint256"
        }
      ],
      "name": "userIds",
      "outputs": [
        {
          "name": "",
          "type": "string"
        }
      ],
      "payable": false,
      "stateMutability": "view",
      "type": "function"
    },
    {
      "constant": true,
      "inputs": [
        {
          "name": "",
          "type": "uint256"
        }
      ],
      "name": "userAccounts",
      "outputs": [
        {
          "name": "",
          "type": "address"
        }
      ],
      "payable": false,
      "stateMutability": "view",
      "type": "function"
    },
    {
      "constant": true,
      "inputs": [
        {
          "name": "",
          "type": "uint256"
        }
      ],
      "name": "deployedProjects",
      "outputs": [
        {
          "name": "deployedAddress",
          "type": "address"
        },
        {
          "name": "title",
          "type": "string"
        },
        {
          "name": "description",
          "type": "string"
        }
      ],
      "payable": false,
      "stateMutability": "view",
      "type": "function"
    },
    {
      "constant": false,
      "inputs": [
        {
          "name": "_userId",
          "type": "string"
        }
      ],
      "name": "register",
      "outputs": [],
      "payable": false,
      "stateMutability": "nonpayable",
      "type": "function"
    },
    {
      "constant": true,
      "inputs": [
        {
          "name": "_userId",
          "type": "string"
        }
      ],
      "name": "addressForUserId",
      "outputs": [
        {
          "name": "",
          "type": "address"
        }
      ],
      "payable": false,
      "stateMutability": "view",
      "type": "function"
    },
    {
      "constant": true,
      "inputs": [
        {
          "name": "_address",
          "type": "address"
        }
      ],
      "name": "userIdForAccount",
      "outputs": [
        {
          "name": "",
          "type": "string"
        }
      ],
      "payable": false,
      "stateMutability": "view",
      "type": "function"
    },
    {
      "constant": false,
      "inputs": [
        {
          "name": "_title",
          "type": "string"
        },
        {
          "name": "_description",
          "type": "string"
        },
        {
          "name": "holderAddresses",
          "type": "address[]"
        }
      ],
      "name": "newProject",
      "outputs": [],
      "payable": false,
      "stateMutability": "nonpayable",
      "type": "function"
    }
  ],
  "bytecode": "0x608060405234801561001057600080fd5b50611fbd806100206000396000f3006080604052600436106200008b576000357c0100000000000000000000000000000000000000000000000000000000900463ffffffff1680634635fd6814620000905780634c2fab4c146200013c578063616d505814620002315780636479f7e914620002a15780637415c01014620003635780639ec6deaf146200040f578063f2c298be146200055d575b600080fd5b3480156200009d57600080fd5b50620000be60048036038101908080359060200190929190505050620005c9565b6040518080602001828103825283818151815260200191508051906020019080838360005b8381101562000100578082015181840152602081019050620000e3565b50505050905090810190601f1680156200012e5780820380516001836020036101000a031916815260200191505b509250505060405180910390f35b3480156200014957600080fd5b506200022f600480360381019080803590602001908201803590602001908080601f0160208091040260200160405190810160405280939291908181526020018383808284378201915050505050509192919290803590602001908201803590602001908080601f01602080910402602001604051908101604052809392919081815260200183838082843782019150505050505091929192908035906020019082018035906020019080806020026020016040519081016040528093929190818152602001838360200280828437820191505050505050919291929050505062000689565b005b3480156200023e57600080fd5b506200025f6004803603810190808035906020019092919050505062000a0b565b604051808273ffffffffffffffffffffffffffffffffffffffff1673ffffffffffffffffffffffffffffffffffffffff16815260200191505060405180910390f35b348015620002ae57600080fd5b50620002e5600480360381019080803573ffffffffffffffffffffffffffffffffffffffff16906020019092919050505062000a4a565b6040518080602001828103825283818151815260200191508051906020019080838360005b83811015620003275780820151818401526020810190506200030a565b50505050905090810190601f168015620003555780820380516001836020036101000a031916815260200191505b509250505060405180910390f35b3480156200037057600080fd5b50620003cd600480360381019080803590602001908201803590602001908080601f016020809104026020016040519081016040528093929190818152602001838380828437820191505050505050919291929050505062000b2f565b604051808273ffffffffffffffffffffffffffffffffffffffff1673ffffffffffffffffffffffffffffffffffffffff16815260200191505060405180910390f35b3480156200041c57600080fd5b506200043d6004803603810190808035906020019092919050505062000bc6565b604051808473ffffffffffffffffffffffffffffffffffffffff1673ffffffffffffffffffffffffffffffffffffffff1681526020018060200180602001838103835285818151815260200191508051906020019080838360005b83811015620004b557808201518184015260208101905062000498565b50505050905090810190601f168015620004e35780820380516001836020036101000a031916815260200191505b50838103825284818151815260200191508051906020019080838360005b838110156200051e57808201518184015260208101905062000501565b50505050905090810190601f1680156200054c5780820380516001836020036101000a031916815260200191505b509550505050505060405180910390f35b3480156200056a57600080fd5b50620005c7600480360381019080803590602001908201803590602001908080601f016020809104026020016040519081016040528093929190818152602001838380828437820191505050505050919291929050505062000d58565b005b600181815481101515620005d957fe5b906000526020600020016000915090508054600181600116156101000203166002900480601f016020809104026020016040519081016040528092919081815260200182805460018160011615610100020316600290048015620006815780601f10620006555761010080835404028352916020019162000681565b820191906000526020600020905b8154815290600101906020018083116200066357829003601f168201915b505050505081565b6000806200069662001196565b600092505b83518310156200078d57600560008585815181101515620006b857fe5b9060200190602002015173ffffffffffffffffffffffffffffffffffffffff1673ffffffffffffffffffffffffffffffffffffffff16815260200190815260200160002060009054906101000a900460ff1615156200077f576040517f08c379a000000000000000000000000000000000000000000000000000000000815260040180806020018281038252600c8152602001807f7573657220696e76616c6964000000000000000000000000000000000000000081525060200191505060405180910390fd5b82806001019350506200069b565b858530866200079b620011ce565b8080602001806020018573ffffffffffffffffffffffffffffffffffffffff1673ffffffffffffffffffffffffffffffffffffffff16815260200180602001848103845288818151815260200191508051906020019080838360005b8381101562000814578082015181840152602081019050620007f7565b50505050905090810190601f168015620008425780820380516001836020036101000a031916815260200191505b50848103835287818151815260200191508051906020019080838360005b838110156200087d57808201518184015260208101905062000860565b50505050905090810190601f168015620008ab5780820380516001836020036101000a031916815260200191505b50848103825285818151815260200191508051906020019060200280838360005b83811015620008e9578082015181840152602081019050620008cc565b50505050905001975050505050505050604051809103906000f08015801562000916573d6000803e3d6000fd5b5091506060604051908101604052808373ffffffffffffffffffffffffffffffffffffffff1681526020018781526020018681525090506006819080600181540180825580915050906001820390600052602060002090600302016000909192909190915060008201518160000160006101000a81548173ffffffffffffffffffffffffffffffffffffffff021916908373ffffffffffffffffffffffffffffffffffffffff1602179055506020820151816001019080519060200190620009e0929190620011df565b506040820151816002019080519060200190620009ff929190620011df565b50505050505050505050565b60008181548110151562000a1b57fe5b906000526020600020016000915054906101000a900473ffffffffffffffffffffffffffffffffffffffff1681565b6060600460008373ffffffffffffffffffffffffffffffffffffffff1673ffffffffffffffffffffffffffffffffffffffff1681526020019081526020016000208054600181600116156101000203166002900480601f01602080910402602001604051908101604052809291908181526020018280546001816001161561010002031660029004801562000b235780601f1062000af75761010080835404028352916020019162000b23565b820191906000526020600020905b81548152906001019060200180831162000b0557829003601f168201915b50505050509050919050565b60006002826040518082805190602001908083835b60208310151562000b6b578051825260208201915060208101905060208303925062000b44565b6001836020036101000a038019825116818451168082178552505050505050905001915050908152602001604051809103902060009054906101000a900473ffffffffffffffffffffffffffffffffffffffff169050919050565b60068181548110151562000bd657fe5b90600052602060002090600302016000915090508060000160009054906101000a900473ffffffffffffffffffffffffffffffffffffffff1690806001018054600181600116156101000203166002900480601f01602080910402602001604051908101604052809291908181526020018280546001816001161561010002031660029004801562000cac5780601f1062000c805761010080835404028352916020019162000cac565b820191906000526020600020905b81548152906001019060200180831162000c8e57829003601f168201915b505050505090806002018054600181600116156101000203166002900480601f01602080910402602001604051908101604052809291908181526020018280546001816001161561010002031660029004801562000d4e5780601f1062000d225761010080835404028352916020019162000d4e565b820191906000526020600020905b81548152906001019060200180831162000d3057829003601f168201915b5050505050905083565b600560003373ffffffffffffffffffffffffffffffffffffffff1673ffffffffffffffffffffffffffffffffffffffff16815260200190815260200160002060009054906101000a900460ff1615151562000e1b576040517f08c379a000000000000000000000000000000000000000000000000000000000815260040180806020018281038252601f8152602001807f455448206163636f756e7420616c72656164792072656769737465726564210081525060200191505060405180910390fd5b6003816040518082805190602001908083835b60208310151562000e55578051825260208201915060208101905060208303925062000e2e565b6001836020036101000a038019825116818451168082178552505050505050905001915050908152602001604051809103902060009054906101000a900460ff1615151562000f0c576040517f08c379a00000000000000000000000000000000000000000000000000000000081526004018080602001828103825260178152602001807f557365726e616d6520616c72656164792065786973742100000000000000000081525060200191505060405180910390fd5b60003390806001815401808255809150509060018203906000526020600020016000909192909190916101000a81548173ffffffffffffffffffffffffffffffffffffffff021916908373ffffffffffffffffffffffffffffffffffffffff16021790555050600181908060018154018082558091505090600182039060005260206000200160009091929091909150908051906020019062000fb192919062001266565b5050336002826040518082805190602001908083835b60208310151562000fee578051825260208201915060208101905060208303925062000fc7565b6001836020036101000a038019825116818451168082178552505050505050905001915050908152602001604051809103902060006101000a81548173ffffffffffffffffffffffffffffffffffffffff021916908373ffffffffffffffffffffffffffffffffffffffff16021790555060016003826040518082805190602001908083835b6020831015156200109b578051825260208201915060208101905060208303925062001074565b6001836020036101000a038019825116818451168082178552505050505050905001915050908152602001604051809103902060006101000a81548160ff02191690831515021790555080600460003373ffffffffffffffffffffffffffffffffffffffff1673ffffffffffffffffffffffffffffffffffffffff16815260200190815260200160002090805190602001906200113a92919062001266565b506001600560003373ffffffffffffffffffffffffffffffffffffffff1673ffffffffffffffffffffffffffffffffffffffff16815260200190815260200160002060006101000a81548160ff02191690831515021790555050565b606060405190810160405280600073ffffffffffffffffffffffffffffffffffffffff16815260200160608152602001606081525090565b604051610c7c806200131683390190565b828054600181600116156101000203166002900490600052602060002090601f016020900481019282601f106200122257805160ff191683800117855562001253565b8280016001018555821562001253579182015b828111156200125257825182559160200191906001019062001235565b5b509050620012629190620012ed565b5090565b828054600181600116156101000203166002900490600052602060002090601f016020900481019282601f10620012a957805160ff1916838001178555620012da565b82800160010185558215620012da579182015b82811115620012d9578251825591602001919060010190620012bc565b5b509050620012e99190620012ed565b5090565b6200131291905b808211156200130e576000816000905550600101620012f4565b5090565b90560060806040523480156200001157600080fd5b5060405162000c7c38038062000c7c83398101806040528101908080518201929190602001805182019291906020018051906020019092919080518201929190505050600080600060606200006562000428565b88600090805190602001906200007d92919062000460565b5087600190805190602001906200009692919062000460565b50869450600093505b8551841015620003f7578584815181101515620000b857fe5b906020019060200201519250600660008473ffffffffffffffffffffffffffffffffffffffff1673ffffffffffffffffffffffffffffffffffffffff16815260200190815260200160002060009054906101000a900460ff1615151562000187576040517f08c379a000000000000000000000000000000000000000000000000000000000815260040180806020018281038252601d8152602001807f6475706c6963617465642075736572206163636f756e7420666f756e6400000081525060200191505060405180910390fd5b6001600660008573ffffffffffffffffffffffffffffffffffffffff1673ffffffffffffffffffffffffffffffffffffffff16815260200190815260200160002060006101000a81548160ff0219169083151502179055508473ffffffffffffffffffffffffffffffffffffffff16636479f7e9846040518263ffffffff167c0100000000000000000000000000000000000000000000000000000000028152600401808273ffffffffffffffffffffffffffffffffffffffff1673ffffffffffffffffffffffffffffffffffffffff168152602001915050600060405180830381600087803b1580156200027b57600080fd5b505af115801562000290573d6000803e3d6000fd5b505050506040513d6000823e3d601f19601f820116820180604052506020811015620002bb57600080fd5b810190808051640100000000811115620002d457600080fd5b82810190506020810184811115620002eb57600080fd5b81518560018202830111640100000000821117156200030957600080fd5b505092919050505091506060604051908101604052808381526020018473ffffffffffffffffffffffffffffffffffffffff1681526020016000815250905060058190806001815401808255809150509060018203906000526020600020906003020160009091929091909150600082015181600001908051906020019062000394929190620004e7565b5060208201518160010160006101000a81548173ffffffffffffffffffffffffffffffffffffffff021916908373ffffffffffffffffffffffffffffffffffffffff1602179055506040820151816002015550505083806001019450506200009f565b6000600260006101000a81548160ff0219169083151502179055504260038190555050505050505050505062000596565b60606040519081016040528060608152602001600073ffffffffffffffffffffffffffffffffffffffff168152602001600081525090565b828054600181600116156101000203166002900490600052602060002090601f016020900481019282601f10620004a357805160ff1916838001178555620004d4565b82800160010185558215620004d4579182015b82811115620004d3578251825591602001919060010190620004b6565b5b509050620004e391906200056e565b5090565b828054600181600116156101000203166002900490600052602060002090601f016020900481019282601f106200052a57805160ff19168380011785556200055b565b828001600101855582156200055b579182015b828111156200055a5782518255916020019190600101906200053d565b5b5090506200056a91906200056e565b5090565b6200059391905b808211156200058f57600081600090555060010162000575565b5090565b90565b6106d680620005a66000396000f300608060405260043610610078576000357c0100000000000000000000000000000000000000000000000000000000900463ffffffff1680633dd30aba146101d95780634a79d50c146102085780637284e416146102985780637427a40c14610328578063e1c0d32714610408578063f1653f6e14610433575b6000806000806000349450600093506005805490509250600091505b600183038210156101465782858115156100aa57fe5b0490506005828154811015156100bc57fe5b906000526020600020906003020160010160009054906101000a900473ffffffffffffffffffffffffffffffffffffffff1673ffffffffffffffffffffffffffffffffffffffff166108fc829081150290604051600060405180830381858888f19350505050158015610133573d6000803e3d6000fd5b5080840193508180600101925050610094565b60056001840381548110151561015857fe5b906000526020600020906003020160010160009054906101000a900473ffffffffffffffffffffffffffffffffffffffff1673ffffffffffffffffffffffffffffffffffffffff166108fc8587039081150290604051600060405180830381858888f193505050501580156101d1573d6000803e3d6000fd5b505050505050005b3480156101e557600080fd5b506101ee61045e565b604051808215151515815260200191505060405180910390f35b34801561021457600080fd5b5061021d610471565b6040518080602001828103825283818151815260200191508051906020019080838360005b8381101561025d578082015181840152602081019050610242565b50505050905090810190601f16801561028a5780820380516001836020036101000a031916815260200191505b509250505060405180910390f35b3480156102a457600080fd5b506102ad61050f565b6040518080602001828103825283818151815260200191508051906020019080838360005b838110156102ed5780820151818401526020810190506102d2565b50505050905090810190601f16801561031a5780820380516001836020036101000a031916815260200191505b509250505060405180910390f35b34801561033457600080fd5b50610353600480360381019080803590602001909291905050506105ad565b60405180806020018473ffffffffffffffffffffffffffffffffffffffff1673ffffffffffffffffffffffffffffffffffffffff168152602001838152602001828103825285818151815260200191508051906020019080838360005b838110156103cb5780820151818401526020810190506103b0565b50505050905090810190601f1680156103f85780820380516001836020036101000a031916815260200191505b5094505050505060405180910390f35b34801561041457600080fd5b5061041d61069e565b6040518082815260200191505060405180910390f35b34801561043f57600080fd5b506104486106a4565b6040518082815260200191505060405180910390f35b600260009054906101000a900460ff1681565b60008054600181600116156101000203166002900480601f0160208091040260200160405190810160405280929190818152602001828054600181600116156101000203166002900480156105075780601f106104dc57610100808354040283529160200191610507565b820191906000526020600020905b8154815290600101906020018083116104ea57829003601f168201915b505050505081565b60018054600181600116156101000203166002900480601f0160208091040260200160405190810160405280929190818152602001828054600181600116156101000203166002900480156105a55780601f1061057a576101008083540402835291602001916105a5565b820191906000526020600020905b81548152906001019060200180831161058857829003601f168201915b505050505081565b6005818154811015156105bc57fe5b9060005260206000209060030201600091509050806000018054600181600116156101000203166002900480601f0160208091040260200160405190810160405280929190818152602001828054600181600116156101000203166002900480156106685780601f1061063d57610100808354040283529160200191610668565b820191906000526020600020905b81548152906001019060200180831161064b57829003601f168201915b5050505050908060010160009054906101000a900473ffffffffffffffffffffffffffffffffffffffff16908060020154905083565b60045481565b600354815600a165627a7a72305820651221bc618133480a912bd18e1a459bcc4fd4ddd017d6654635986a573fe0460029a165627a7a72305820becb678a69d5900527a376ff755200ea0ba91ad9c0d1eab8aee595ec9f8f00b00029",
  "source": "pragma solidity ^0.4.22;\n\ncontract ProjectManager {\n    /*\n     * A factory contract to create new SharesVoteProject\n     * and manager users / project summary for display\n     */\n    \n    struct ProjectSummary {\n        address deployedAddress;\n        string title;\n        string description;\n    }\n    \n    address[] public userAccounts;\n    string[] public userIds;\n    \n    mapping(string=>address)  userAccountMap;\n    mapping(string=>bool)  userIdMap; // for exist logic\n    \n    mapping(address=>string) addressUserMap;\n    mapping(address=>bool)  addressMap; // for exist logic\n    \n    ProjectSummary[] public deployedProjects;\n    \n    function register(string _userId) public {\n        require(!addressMap[msg.sender], 'ETH account already registered!');\n        require(!userIdMap[_userId], 'Username already exist!');\n        // add to username  and account arrays\n        userAccounts.push(msg.sender);\n        userIds.push(_userId);\n        // set userId -> account map\n        userAccountMap[_userId] = msg.sender;\n        // set userId exist\n        userIdMap[_userId] = true;\n        // set account -> userId map\n        addressUserMap[msg.sender] = _userId;\n        // set account address exist\n        addressMap[msg.sender] = true;\n    }\n    \n    function addressForUserId(string _userId) public view returns(address) {\n        return userAccountMap[_userId];\n    }\n    \n    function userIdForAccount(address _address) public view returns (string) {\n        return addressUserMap[_address];\n    }\n    \n    // args for remix testing \n    // \"test\",\"test desc\", [\"0xca35b7d915458ef540ade6068dfe2f44e8fa733c\", \"0x14723a09acff6d2a60dcdf7aa4aff308fddc160c\", \"0x4b0897b0513fdc7c541b6d9d7e929c4e5364d2db\"]\n    \n    function newProject (string _title, string _description, \n        address[] holderAddresses) public {\n        \n        // make sure holder addresses are valid \n        for (uint i=0; i<holderAddresses.length; i++) {\n            require(addressMap[holderAddresses[i]], 'user invalid');\n        }\n        // end validations\n        \n        // deploy ShareVoteProject contract\n        address newDeployedProject = new SharesVoteProject(_title, _description, \n            address(this), holderAddresses);\n        \n        // create and store project summary    \n        ProjectSummary memory projectSummary = ProjectSummary({\n            deployedAddress: newDeployedProject,\n            title: _title,\n            description: _description\n        });\n            \n        deployedProjects.push(projectSummary);\n        \n    }\n\n}\n\ncontract SharesVoteProject {\n    \n    struct ShareHolder {\n        string userId;\n        address account;\n        uint share;\n    }\n    \n    struct Vote {\n        address voter;\n        address holder;\n        uint share;\n    }\n    \n    string public title;\n    string public description;\n    bool public shareDetermined;\n    uint public timeCreated;\n    uint public timeShareDetermined;\n    \n    ShareHolder[] public shareHolders;\n    mapping(address=>bool) uniqueHolderAddressMap;\n    Vote[] private votes;\n    \n    constructor (string _title, string _description, \n        address managerContract,\n        address[] _holderAddresses\n        ) public {\n        title = _title;\n        description = _description;\n        \n        // create list of ShareHolder structs by looking up userId\n        ProjectManager manager = ProjectManager(managerContract);\n        for (uint i=0; i<_holderAddresses.length; i++) {\n            address _address = _holderAddresses[i];\n            \n            require(!uniqueHolderAddressMap[_address], 'duplicated user account found');\n            uniqueHolderAddressMap[_address] = true;\n            \n            // look up userId to create holder struct\n            string memory _userId = manager.userIdForAccount(_address);\n            ShareHolder memory holder = ShareHolder({\n                userId: _userId,\n                account: _address,\n                share: 0\n            });\n            shareHolders.push(holder);\n        }\n        \n        shareDetermined = false;\n        timeCreated = now;\n    }\n    \n    // vote\n    // and finalize shares when everyone voted\n    \n    // Payment and split (fallback function)\n\n    function () public payable {\n        \n        uint balance = msg.value;\n        uint spentAmt = 0;\n        uint l = shareHolders.length;\n        \n        // TODO: use share pct istead of even split :D\n        for(uint i=0; i<l-1; i++){\n            uint amt = balance/l;\n            shareHolders[i].account.transfer(amt);\n            spentAmt += amt;\n        }\n    \n        // send the rest to the last address\n        shareHolders[l-1].account.transfer(balance - spentAmt);\n\n    }\n    \n    \n    //////\n    // future features\n    \n    // - update own vote\n    \n    // - vote add new shareholder\n    \n    // -  kick shareholder\n}",
  "sourcePath": "/Users/wzhang/Documents/dev/eth/test-vue-app/ethereum/contracts/SharesVote.sol",
  "compiler": {
    "name": "solc",
    "version": "0.4.24+commit.e67f0147.Emscripten.clang"
  },
  "schemaVersion": "2.0.1",
  "updatedAt": "2018-07-16T04:57:32.744Z"
}