{
  "contractName": "SharesVoteProject",
  "abi": [
    {
      "constant": true,
      "inputs": [
        {
          "name": "",
          "type": "uint256"
        }
      ],
      "name": "shareHolderAccounts",
      "outputs": [
        {
          "name": "",
          "type": "address"
        }
      ],
      "payable": false,
      "stateMutability": "view",
      "type": "function"
    },
    {
      "constant": true,
      "inputs": [],
      "name": "shareDetermined",
      "outputs": [
        {
          "name": "",
          "type": "bool"
        }
      ],
      "payable": false,
      "stateMutability": "view",
      "type": "function"
    },
    {
      "constant": true,
      "inputs": [],
      "name": "title",
      "outputs": [
        {
          "name": "",
          "type": "string"
        }
      ],
      "payable": false,
      "stateMutability": "view",
      "type": "function"
    },
    {
      "constant": true,
      "inputs": [],
      "name": "description",
      "outputs": [
        {
          "name": "",
          "type": "string"
        }
      ],
      "payable": false,
      "stateMutability": "view",
      "type": "function"
    },
    {
      "constant": true,
      "inputs": [
        {
          "name": "",
          "type": "uint256"
        }
      ],
      "name": "shareHolders",
      "outputs": [
        {
          "name": "account",
          "type": "address"
        },
        {
          "name": "share",
          "type": "uint256"
        }
      ],
      "payable": false,
      "stateMutability": "view",
      "type": "function"
    },
    {
      "constant": true,
      "inputs": [],
      "name": "voteComplete",
      "outputs": [
        {
          "name": "",
          "type": "bool"
        }
      ],
      "payable": false,
      "stateMutability": "view",
      "type": "function"
    },
    {
      "constant": true,
      "inputs": [],
      "name": "numVotes",
      "outputs": [
        {
          "name": "",
          "type": "uint256"
        }
      ],
      "payable": false,
      "stateMutability": "view",
      "type": "function"
    },
    {
      "constant": true,
      "inputs": [],
      "name": "timeShareDetermined",
      "outputs": [
        {
          "name": "",
          "type": "uint256"
        }
      ],
      "payable": false,
      "stateMutability": "view",
      "type": "function"
    },
    {
      "constant": true,
      "inputs": [],
      "name": "timeCreated",
      "outputs": [
        {
          "name": "",
          "type": "uint256"
        }
      ],
      "payable": false,
      "stateMutability": "view",
      "type": "function"
    },
    {
      "inputs": [
        {
          "name": "_title",
          "type": "string"
        },
        {
          "name": "_description",
          "type": "string"
        },
        {
          "name": "_holderAddresses",
          "type": "address[]"
        }
      ],
      "payable": false,
      "stateMutability": "nonpayable",
      "type": "constructor"
    },
    {
      "payable": true,
      "stateMutability": "payable",
      "type": "fallback"
    },
    {
      "constant": true,
      "inputs": [],
      "name": "getShareHolderAccounts",
      "outputs": [
        {
          "name": "",
          "type": "address[]"
        }
      ],
      "payable": false,
      "stateMutability": "view",
      "type": "function"
    },
    {
      "constant": true,
      "inputs": [
        {
          "name": "holderAddress",
          "type": "address"
        }
      ],
      "name": "getVotedStatus",
      "outputs": [
        {
          "name": "",
          "type": "bool"
        }
      ],
      "payable": false,
      "stateMutability": "view",
      "type": "function"
    },
    {
      "constant": false,
      "inputs": [
        {
          "name": "contributors",
          "type": "address[]"
        },
        {
          "name": "votePcts",
          "type": "uint256[]"
        }
      ],
      "name": "vote",
      "outputs": [],
      "payable": false,
      "stateMutability": "nonpayable",
      "type": "function"
    },
    {
      "constant": false,
      "inputs": [],
      "name": "finalizeShares",
      "outputs": [],
      "payable": false,
      "stateMutability": "nonpayable",
      "type": "function"
    },
    {
      "constant": true,
      "inputs": [
        {
          "name": "holder",
          "type": "address"
        }
      ],
      "name": "getShareSum",
      "outputs": [
        {
          "name": "",
          "type": "uint256"
        }
      ],
      "payable": false,
      "stateMutability": "view",
      "type": "function"
    }
  ],
  "bytecode": "0x60806040523480156200001157600080fd5b50604051620017e9380380620017e98339810180604052810190808051820192919060200180518201929190602001805182019291905050506000806200005762000343565b85600090805190602001906200006f92919062000373565b5084600190805190602001906200008892919062000373565b50600092505b8351831015620002f2578383815181101515620000a757fe5b906020019060200201519150600860008373ffffffffffffffffffffffffffffffffffffffff1673ffffffffffffffffffffffffffffffffffffffff16815260200190815260200160002060009054906101000a900460ff1615151562000176576040517f08c379a000000000000000000000000000000000000000000000000000000000815260040180806020018281038252601d8152602001807f6475706c6963617465642075736572206163636f756e7420666f756e6400000081525060200191505060405180910390fd5b6001600860008473ffffffffffffffffffffffffffffffffffffffff1673ffffffffffffffffffffffffffffffffffffffff16815260200190815260200160002060006101000a81548160ff02191690831515021790555060078290806001815401808255809150509060018203906000526020600020016000909192909190916101000a81548173ffffffffffffffffffffffffffffffffffffffff021916908373ffffffffffffffffffffffffffffffffffffffff1602179055505060408051908101604052808373ffffffffffffffffffffffffffffffffffffffff168152602001600081525090506006819080600181540180825580915050906001820390600052602060002090600202016000909192909190915060008201518160000160006101000a81548173ffffffffffffffffffffffffffffffffffffffff021916908373ffffffffffffffffffffffffffffffffffffffff1602179055506020820151816001015550505082806001019350506200008e565b60006002819055506000600360006101000a81548160ff0219169083151502179055506000600360016101000a81548160ff0219169083151502179055504260048190555050505050505062000422565b6040805190810160405280600073ffffffffffffffffffffffffffffffffffffffff168152602001600081525090565b828054600181600116156101000203166002900490600052602060002090601f016020900481019282601f10620003b657805160ff1916838001178555620003e7565b82800160010185558215620003e7579182015b82811115620003e6578251825591602001919060010190620003c9565b5b509050620003f69190620003fa565b5090565b6200041f91905b808211156200041b57600081600090555060010162000401565b5090565b90565b6113b780620004326000396000f3006080604052600436106100d0576000357c0100000000000000000000000000000000000000000000000000000000900463ffffffff1680633afdd91d146102cb5780633dd30aba146103385780634a79d50c14610367578063583180d9146103f75780636def5e93146104525780636f816a20146104a95780637284e416146105525780637427a40c146105e25780639df4cad014610656578063a3bef4d714610685578063b343d968146106b0578063e1c0d3271461071c578063e1fc8d7914610747578063f1653f6e1461075e575b6000806000806100de6111e4565b6000349550600094506006805490509350600092505b600184038310156102375760068381548110151561010e57fe5b90600052602060002090600202016040805190810160405290816000820160009054906101000a900473ffffffffffffffffffffffffffffffffffffffff1673ffffffffffffffffffffffffffffffffffffffff1673ffffffffffffffffffffffffffffffffffffffff168152602001600182015481525050915060648260200151870281151561019b57fe5b0490506006838154811015156101ad57fe5b906000526020600020906002020160000160009054906101000a900473ffffffffffffffffffffffffffffffffffffffff1673ffffffffffffffffffffffffffffffffffffffff166108fc829081150290604051600060405180830381858888f19350505050158015610224573d6000803e3d6000fd5b50808501945082806001019350506100f4565b60066001850381548110151561024957fe5b906000526020600020906002020160000160009054906101000a900473ffffffffffffffffffffffffffffffffffffffff1673ffffffffffffffffffffffffffffffffffffffff166108fc8688039081150290604051600060405180830381858888f193505050501580156102c2573d6000803e3d6000fd5b50505050505050005b3480156102d757600080fd5b506102f660048036038101908080359060200190929190505050610789565b604051808273ffffffffffffffffffffffffffffffffffffffff1673ffffffffffffffffffffffffffffffffffffffff16815260200191505060405180910390f35b34801561034457600080fd5b5061034d6107c7565b604051808215151515815260200191505060405180910390f35b34801561037357600080fd5b5061037c6107da565b6040518080602001828103825283818151815260200191508051906020019080838360005b838110156103bc5780820151818401526020810190506103a1565b50505050905090810190601f1680156103e95780820380516001836020036101000a031916815260200191505b509250505060405180910390f35b34801561040357600080fd5b50610438600480360381019080803573ffffffffffffffffffffffffffffffffffffffff169060200190929190505050610878565b604051808215151515815260200191505060405180910390f35b34801561045e57600080fd5b50610493600480360381019080803573ffffffffffffffffffffffffffffffffffffffff1690602001909291905050506108d5565b6040518082815260200191505060405180910390f35b3480156104b557600080fd5b50610550600480360381019080803590602001908201803590602001908080602002602001604051908101604052809392919081815260200183836020028082843782019150505050505091929192908035906020019082018035906020019080806020026020016040519081016040528093929190818152602001838360200280828437820191505050505050919291929050505061091e565b005b34801561055e57600080fd5b50610567610cf6565b6040518080602001828103825283818151815260200191508051906020019080838360005b838110156105a757808201518184015260208101905061058c565b50505050905090810190601f1680156105d45780820380516001836020036101000a031916815260200191505b509250505060405180910390f35b3480156105ee57600080fd5b5061060d60048036038101908080359060200190929190505050610d94565b604051808373ffffffffffffffffffffffffffffffffffffffff1673ffffffffffffffffffffffffffffffffffffffff1681526020018281526020019250505060405180910390f35b34801561066257600080fd5b5061066b610de7565b604051808215151515815260200191505060405180910390f35b34801561069157600080fd5b5061069a610dfa565b6040518082815260200191505060405180910390f35b3480156106bc57600080fd5b506106c5610e00565b6040518080602001828103825283818151815260200191508051906020019060200280838360005b838110156107085780820151818401526020810190506106ed565b505050509050019250505060405180910390f35b34801561072857600080fd5b50610731610e8e565b6040518082815260200191505060405180910390f35b34801561075357600080fd5b5061075c610e94565b005b34801561076a57600080fd5b506107736111de565b6040518082815260200191505060405180910390f35b60078181548110151561079857fe5b906000526020600020016000915054906101000a900473ffffffffffffffffffffffffffffffffffffffff1681565b600360019054906101000a900460ff1681565b60008054600181600116156101000203166002900480601f0160208091040260200160405190810160405280929190818152602001828054600181600116156101000203166002900480156108705780601f1061084557610100808354040283529160200191610870565b820191906000526020600020905b81548152906001019060200180831161085357829003601f168201915b505050505081565b600060011515600960008473ffffffffffffffffffffffffffffffffffffffff1673ffffffffffffffffffffffffffffffffffffffff16815260200190815260200160002060009054906101000a900460ff161515149050919050565b6000600b60008373ffffffffffffffffffffffffffffffffffffffff1673ffffffffffffffffffffffffffffffffffffffff168152602001908152602001600020549050919050565b600080610929611214565b8351855114151561093957600080fd5b600860003373ffffffffffffffffffffffffffffffffffffffff1673ffffffffffffffffffffffffffffffffffffffff16815260200190815260200160002060009054906101000a900460ff16151561099157600080fd5b600960003373ffffffffffffffffffffffffffffffffffffffff1673ffffffffffffffffffffffffffffffffffffffff16815260200190815260200160002060009054906101000a900460ff16151515610a53576040517f08c379a00000000000000000000000000000000000000000000000000000000081526004018080602001828103825260128152602001807f63616e206f6e6c7920766f7465206f6e6365000000000000000000000000000081525060200191505060405180910390fd5b6001600960003373ffffffffffffffffffffffffffffffffffffffff1673ffffffffffffffffffffffffffffffffffffffff16815260200190815260200160002060006101000a81548160ff02191690831515021790555060009250600091505b8451821015610b5557600860008684815181101515610acf57fe5b9060200190602002015173ffffffffffffffffffffffffffffffffffffffff1673ffffffffffffffffffffffffffffffffffffffff16815260200190815260200160002060009054906101000a900460ff161515610b2c57600080fd5b8382815181101515610b3a57fe5b90602001906020020151830192508180600101925050610ab4565b606483141515610bcd576040517f08c379a000000000000000000000000000000000000000000000000000000000815260040180806020018281038252601d8152602001807f766f7465207063742073686f756c642073756d20757020746f2031303000000081525060200191505060405180910390fd5b6060604051908101604052803373ffffffffffffffffffffffffffffffffffffffff168152602001868152602001858152509050600a819080600181540180825580915050906001820390600052602060002090600302016000909192909190915060008201518160000160006101000a81548173ffffffffffffffffffffffffffffffffffffffff021916908373ffffffffffffffffffffffffffffffffffffffff1602179055506020820151816001019080519060200190610c9292919061124c565b506040820151816002019080519060200190610caf9291906112d6565b5050505060016002600082825401925050819055506006805490506002541415610cef576001600360006101000a81548160ff0219169083151502179055505b5050505050565b60018054600181600116156101000203166002900480601f016020809104026020016040519081016040528092919081815260200182805460018160011615610100020316600290048015610d8c5780601f10610d6157610100808354040283529160200191610d8c565b820191906000526020600020905b815481529060010190602001808311610d6f57829003601f168201915b505050505081565b600681815481101515610da357fe5b90600052602060002090600202016000915090508060000160009054906101000a900473ffffffffffffffffffffffffffffffffffffffff16908060010154905082565b600360009054906101000a900460ff1681565b60025481565b60606007805480602002602001604051908101604052809291908181526020018280548015610e8457602002820191906000526020600020905b8160009054906101000a900473ffffffffffffffffffffffffffffffffffffffff1673ffffffffffffffffffffffffffffffffffffffff1681526020019060010190808311610e3a575b5050505050905090565b60055481565b600080600080600080600080600360009054906101000a900460ff161515610f24576040517f08c379a00000000000000000000000000000000000000000000000000000000081526004018080602001828103825260118152602001807f7265717569726520616c6c20766f74657300000000000000000000000000000081525060200191505060405180910390fd5b600960003373ffffffffffffffffffffffffffffffffffffffff1673ffffffffffffffffffffffffffffffffffffffff16815260200190815260200160002060009054906101000a900460ff161515610f7c57600080fd5b600097505b600a805490508810156110b657600096505b600a88815481101515610fa257fe5b9060005260206000209060030201600101805490508710156110a957600a88815481101515610fcd57fe5b906000526020600020906003020160020187815481101515610feb57fe5b9060005260206000200154955085600b6000600a8b81548110151561100c57fe5b90600052602060002090600302016001018a81548110151561102a57fe5b9060005260206000200160009054906101000a900473ffffffffffffffffffffffffffffffffffffffff1673ffffffffffffffffffffffffffffffffffffffff1673ffffffffffffffffffffffffffffffffffffffff168152602001908152602001600020600082825401925050819055508680600101975050610f93565b8780600101985050610f81565b60009450600093505b60016006805490500384101561117f576006848154811015156110de57fe5b90600052602060002090600202019250600680549050600b60008560000160009054906101000a900473ffffffffffffffffffffffffffffffffffffffff1673ffffffffffffffffffffffffffffffffffffffff1673ffffffffffffffffffffffffffffffffffffffff1681526020019081526020016000205481151561116157fe5b049150818360010181905550818501945083806001019450506110bf565b600660016006805490500381548110151561119657fe5b906000526020600020906002020190508460640381600101819055506001600360016101000a81548160ff021916908315150217905550426005819055505050505050505050565b60045481565b6040805190810160405280600073ffffffffffffffffffffffffffffffffffffffff168152602001600081525090565b606060405190810160405280600073ffffffffffffffffffffffffffffffffffffffff16815260200160608152602001606081525090565b8280548282559060005260206000209081019282156112c5579160200282015b828111156112c45782518260006101000a81548173ffffffffffffffffffffffffffffffffffffffff021916908373ffffffffffffffffffffffffffffffffffffffff1602179055509160200191906001019061126c565b5b5090506112d29190611323565b5090565b828054828255906000526020600020908101928215611312579160200282015b828111156113115782518255916020019190600101906112f6565b5b50905061131f9190611366565b5090565b61136391905b8082111561135f57600081816101000a81549073ffffffffffffffffffffffffffffffffffffffff021916905550600101611329565b5090565b90565b61138891905b8082111561138457600081600090555060010161136c565b5090565b905600a165627a7a723058208f651eff8f0af394946d4f29b22848bbd0306a2ed0b52a83f69224a1ac92bdcf0029",
  "source": "pragma solidity ^0.4.24;\n\ncontract ProjectManager {\n    /*\n     * A factory contract to create new SharesVoteProject\n     * and manager users / project summary for display\n     */\n    \n    struct ProjectSummary {\n        address deployedAddress;\n        string title;\n        string description;\n        uint numContributors;\n    }\n    \n    address[] public userAccounts;\n    string[] public userIds;\n    \n    mapping(string=>address)  userAccountMap;\n    mapping(string=>bool)  userIdMap; // for exist logic\n    \n    mapping(address=>string) addressUserMap;\n    mapping(address=>bool)  addressMap; // for exist logic\n    \n    ProjectSummary[] public deployedProjects;\n    \n    function register(string _userId) public {\n        require(!addressMap[msg.sender], 'ETH account already registered!');\n        require(!userIdMap[_userId], 'Username already exist!');\n        // add to username  and account arrays\n        userAccounts.push(msg.sender);\n        userIds.push(_userId);\n        // set userId -> account map\n        userAccountMap[_userId] = msg.sender;\n        // set userId exist\n        userIdMap[_userId] = true;\n        // set account -> userId map\n        addressUserMap[msg.sender] = _userId;\n        // set account address exist\n        addressMap[msg.sender] = true;\n    }\n    \n    function addressForUserId(string _userId) public view returns(address) {\n        return userAccountMap[_userId];\n    }\n    \n    function userIdForAccount(address _address) public view returns (string) {\n        return addressUserMap[_address];\n    }\n    \n    function getUserAccounts() public view returns (address[]){\n        return userAccounts;\n    }\n    \n    // args for remix testing \n    // \"test 1\",\"test 1 desc\", [\"0x7c48c0E144ade759155067502e1aaC41DF9dc28C\", \"0xC66ae400Ab10127Cc3939326146A6924Ff72D578\", \"0x0C7C1d31448B0A1f85B23DB2B11c1Efdd2a02ccA\"]\n    \n    // \"test 2\",\"test 12222 desc\", [\"0xca35b7d915458ef540ade6068dfe2f44e8fa733c\", \"0x14723a09acff6d2a60dcdf7aa4aff308fddc160c\", \"0x4b0897b0513fdc7c541b6d9d7e929c4e5364d2db\"]\n    \n\n    \n    function newProject (string _title, string _description, \n        address[] holderAddresses) public {\n        \n        // make sure holder addresses are valid \n        for (uint i=0; i<holderAddresses.length; i++) {\n            require(addressMap[holderAddresses[i]], 'user invalid');\n        }\n        // end validations\n        \n        // deploy ShareVoteProject contract\n        address newDeployedProject = new SharesVoteProject(\n            _title, _description, \n            // address(this), \n            holderAddresses);\n        \n        // create and store project summary    \n        ProjectSummary memory projectSummary = ProjectSummary({\n            deployedAddress: newDeployedProject,\n            title: _title,\n            description: _description,\n            numContributors: holderAddresses.length\n        });\n            \n        deployedProjects.push(projectSummary);\n        \n    }\n    \n    function getNumProjects() public view returns (uint){\n        return deployedProjects.length;\n    }\n\n}\n\ncontract SharesVoteProject {\n    \n    struct ShareHolder {\n        // string userId;\n        address account;\n        uint share;\n    }\n    \n    struct Vote {\n        address voter;\n        address[] holders;\n        uint[] shares;\n    }\n    \n    string public title;\n    string public description;\n    uint public numVotes;\n    bool public voteComplete;\n    bool public shareDetermined;\n    uint public timeCreated;\n    uint public timeShareDetermined;\n    \n    ShareHolder[] public shareHolders;\n    address[] public shareHolderAccounts;\n    mapping(address=>bool) uniqueHolderAddressMap;\n    mapping(address=>bool) votedMap;\n    \n    Vote[] private votes;\n    mapping(address=>uint) shareSum;\n    \n    constructor (string _title, string _description, \n        // address managerContract,\n        address[] _holderAddresses\n        ) public {\n        title = _title;\n        description = _description;\n        \n        // create list of ShareHolder structs by looking up userId\n        // ProjectManager manager = ProjectManager(managerContract);\n        for (uint i=0; i<_holderAddresses.length; i++) {\n            address _address = _holderAddresses[i];\n            \n            require(!uniqueHolderAddressMap[_address], 'duplicated user account found');\n            uniqueHolderAddressMap[_address] = true;\n            shareHolderAccounts.push(_address);\n            \n            // look up userId to create holder struct\n            // string memory _userId = manager.userIdForAccount(_address);\n            ShareHolder memory holder = ShareHolder({\n                // userId: _userId,\n                account: _address,\n                share: 0\n            });\n            shareHolders.push(holder);\n        }\n        \n        numVotes = 0;\n        voteComplete = false;\n        shareDetermined = false;\n        timeCreated = now;\n    }\n    \n    function getShareHolderAccounts() public view returns(address[]){\n        return shareHolderAccounts;\n    }\n    \n    function getVotedStatus(address holderAddress) public view returns(bool){\n        return votedMap[holderAddress] == true;\n    }\n    \n    //example\n    // [\"0xca35b7d915458ef540ade6068dfe2f44e8fa733c\", \"0x14723a09acff6d2a60dcdf7aa4aff308fddc160c\", \"0x4b0897b0513fdc7c541b6d9d7e929c4e5364d2db\"], [30, 30, 40]\n    // [\"0xca35b7d915458ef540ade6068dfe2f44e8fa733c\", \"0x14723a09acff6d2a60dcdf7aa4aff308fddc160c\", \"0x4b0897b0513fdc7c541b6d9d7e929c4e5364d2db\"], [30, 20, 50]\n    // [\"0xca35b7d915458ef540ade6068dfe2f44e8fa733c\", \"0x14723a09acff6d2a60dcdf7aa4aff308fddc160c\", \"0x4b0897b0513fdc7c541b6d9d7e929c4e5364d2db\"], [20, 40, 40]\n    \n    // [\"0x7c48c0E144ade759155067502e1aaC41DF9dc28C\", \"0xC66ae400Ab10127Cc3939326146A6924Ff72D578\"], [40, 60]\n    // [\"0x7c48c0E144ade759155067502e1aaC41DF9dc28C\", \"0xC66ae400Ab10127Cc3939326146A6924Ff72D578\"], [50, 50]\n    function vote(address[] contributors, uint[] votePcts) public {\n        // require valid voter and contirbutor list\n        require(contributors.length == votePcts.length);\n        require(uniqueHolderAddressMap[msg.sender]);\n        \n        require(!votedMap[msg.sender], \"can only vote once\");\n        votedMap[msg.sender] = true;\n        \n        uint total = 0;\n        for (uint i=0; i<contributors.length; i++) {\n            require(uniqueHolderAddressMap[contributors[i]]);\n            total += votePcts[i];\n        }\n        require(total == 100, 'vote pct should sum up to 100');\n\n        Vote memory _vote = Vote({\n            voter: msg.sender,\n            holders: contributors,\n            shares: votePcts\n        });\n        votes.push(_vote);\n        \n        numVotes += 1;\n        \n        // mark voting complete if all contributors voted\n        if (numVotes == shareHolders.length) {\n            voteComplete = true;\n        }\n    }\n    \n    // Payment and split (fallback function)\n    \n    function finalizeShares() public {\n        \n        require(voteComplete, \"require all votes\");\n        require(votedMap[msg.sender]);\n        \n        for (uint i=0; i<votes.length; i++) {\n            for (uint j=0; j<votes[i].holders.length; j++) {\n                uint shareWithPrecision = votes[i].shares[j] ;\n                shareSum[votes[i].holders[j]] += shareWithPrecision;\n            }\n        }\n        uint currentShareTotal = 0;\n        for (uint k=0; k<shareHolders.length - 1; k++) {\n            ShareHolder storage holder = shareHolders[k];\n            uint curShare = shareSum[holder.account] / shareHolders.length;\n            holder.share = curShare;\n            currentShareTotal += curShare;\n        }\n        ShareHolder storage lastHolder = shareHolders[shareHolders.length - 1];\n        lastHolder.share = 100 - currentShareTotal;\n        \n        shareDetermined = true;\n        timeShareDetermined = now;\n        \n        // TODO: pageRank implementation\n    }\n    \n    function getShareSum(address holder) public view returns (uint){\n        return shareSum[holder];\n    }\n    \n    function () public payable {\n        \n        uint balance = msg.value;\n        uint spentAmt = 0;\n        uint l = shareHolders.length;\n        \n        // TODO: use share pct istead of even split :D\n        for(uint i=0; i<l-1; i++){\n            ShareHolder memory curHolder = shareHolders[i];\n            uint amt = balance * curHolder.share / 100;\n            shareHolders[i].account.transfer(amt);\n            spentAmt += amt;\n        }\n    \n        // send the rest to the last address\n        shareHolders[l-1].account.transfer(balance - spentAmt);\n\n    }\n    \n    \n    //////\n    // future features\n    \n    // - update own vote\n    \n    // - vote add new shareholder\n    \n    // -  kick shareholder\n}",
  "sourcePath": "/Users/wzhang/Documents/dev/on-chained/OnChained/ethereum/contracts/SharesVote.sol",
  "compiler": {
    "name": "solc",
    "version": "0.4.24+commit.e67f0147.Emscripten.clang"
  },
  "schemaVersion": "2.0.1",
  "updatedAt": "2018-07-18T22:53:58.000Z"
}