{
  "contractName": "SharesVoteProject",
  "abi": [
    {
      "constant": true,
      "inputs": [],
      "name": "shareDetermined",
      "outputs": [
        {
          "name": "",
          "type": "bool"
        }
      ],
      "payable": false,
      "stateMutability": "view",
      "type": "function"
    },
    {
      "constant": true,
      "inputs": [],
      "name": "title",
      "outputs": [
        {
          "name": "",
          "type": "string"
        }
      ],
      "payable": false,
      "stateMutability": "view",
      "type": "function"
    },
    {
      "constant": true,
      "inputs": [],
      "name": "description",
      "outputs": [
        {
          "name": "",
          "type": "string"
        }
      ],
      "payable": false,
      "stateMutability": "view",
      "type": "function"
    },
    {
      "constant": true,
      "inputs": [
        {
          "name": "",
          "type": "uint256"
        }
      ],
      "name": "shareHolders",
      "outputs": [
        {
          "name": "userId",
          "type": "string"
        },
        {
          "name": "account",
          "type": "address"
        },
        {
          "name": "share",
          "type": "uint256"
        }
      ],
      "payable": false,
      "stateMutability": "view",
      "type": "function"
    },
    {
      "constant": true,
      "inputs": [],
      "name": "timeShareDetermined",
      "outputs": [
        {
          "name": "",
          "type": "uint256"
        }
      ],
      "payable": false,
      "stateMutability": "view",
      "type": "function"
    },
    {
      "constant": true,
      "inputs": [],
      "name": "timeCreated",
      "outputs": [
        {
          "name": "",
          "type": "uint256"
        }
      ],
      "payable": false,
      "stateMutability": "view",
      "type": "function"
    },
    {
      "inputs": [
        {
          "name": "_title",
          "type": "string"
        },
        {
          "name": "_description",
          "type": "string"
        },
        {
          "name": "managerContract",
          "type": "address"
        },
        {
          "name": "_holderAddresses",
          "type": "address[]"
        }
      ],
      "payable": false,
      "stateMutability": "nonpayable",
      "type": "constructor"
    },
    {
      "payable": true,
      "stateMutability": "payable",
      "type": "fallback"
    },
    {
      "constant": false,
      "inputs": [
        {
          "name": "contributors",
          "type": "address[]"
        },
        {
          "name": "votePcts",
          "type": "uint256[]"
        }
      ],
      "name": "vote",
      "outputs": [],
      "payable": false,
      "stateMutability": "nonpayable",
      "type": "function"
    }
  ],
  "bytecode": "0x60806040523480156200001157600080fd5b50604051620012a2380380620012a28339810180604052810190808051820192919060200180518201929190602001805190602001909291908051820192919050505060008060006060620000656200044b565b88600090805190602001906200007d92919062000483565b5087600190805190602001906200009692919062000483565b50869450600093505b8551841015620003f7578584815181101515620000b857fe5b906020019060200201519250600760008473ffffffffffffffffffffffffffffffffffffffff1673ffffffffffffffffffffffffffffffffffffffff16815260200190815260200160002060009054906101000a900460ff1615151562000187576040517f08c379a000000000000000000000000000000000000000000000000000000000815260040180806020018281038252601d8152602001807f6475706c6963617465642075736572206163636f756e7420666f756e6400000081525060200191505060405180910390fd5b6001600760008573ffffffffffffffffffffffffffffffffffffffff1673ffffffffffffffffffffffffffffffffffffffff16815260200190815260200160002060006101000a81548160ff0219169083151502179055508473ffffffffffffffffffffffffffffffffffffffff16636479f7e9846040518263ffffffff167c0100000000000000000000000000000000000000000000000000000000028152600401808273ffffffffffffffffffffffffffffffffffffffff1673ffffffffffffffffffffffffffffffffffffffff168152602001915050600060405180830381600087803b1580156200027b57600080fd5b505af115801562000290573d6000803e3d6000fd5b505050506040513d6000823e3d601f19601f820116820180604052506020811015620002bb57600080fd5b810190808051640100000000811115620002d457600080fd5b82810190506020810184811115620002eb57600080fd5b81518560018202830111640100000000821117156200030957600080fd5b505092919050505091506060604051908101604052808381526020018473ffffffffffffffffffffffffffffffffffffffff16815260200160008152509050600681908060018154018082558091505090600182039060005260206000209060030201600090919290919091506000820151816000019080519060200190620003949291906200050a565b5060208201518160010160006101000a81548173ffffffffffffffffffffffffffffffffffffffff021916908373ffffffffffffffffffffffffffffffffffffffff1602179055506040820151816002015550505083806001019450506200009f565b60006002819055506000600360006101000a81548160ff0219169083151502179055506000600360016101000a81548160ff02191690831515021790555042600481905550505050505050505050620005b9565b60606040519081016040528060608152602001600073ffffffffffffffffffffffffffffffffffffffff168152602001600081525090565b828054600181600116156101000203166002900490600052602060002090601f016020900481019282601f10620004c657805160ff1916838001178555620004f7565b82800160010185558215620004f7579182015b82811115620004f6578251825591602001919060010190620004d9565b5b50905062000506919062000591565b5090565b828054600181600116156101000203166002900490600052602060002090601f016020900481019282601f106200054d57805160ff19168380011785556200057e565b828001600101855582156200057e579182015b828111156200057d57825182559160200191906001019062000560565b5b5090506200058d919062000591565b5090565b620005b691905b80821115620005b257600081600090555060010162000598565b5090565b90565b610cd980620005c96000396000f300608060405260043610610083576000357c0100000000000000000000000000000000000000000000000000000000900463ffffffff1680633dd30aba146101e45780634a79d50c146102135780636f816a20146102a35780637284e4161461034c5780637427a40c146103dc578063e1c0d327146104bc578063f1653f6e146104e7575b6000806000806000349450600093506006805490509250600091505b600183038210156101515782858115156100b557fe5b0490506006828154811015156100c757fe5b906000526020600020906003020160010160009054906101000a900473ffffffffffffffffffffffffffffffffffffffff1673ffffffffffffffffffffffffffffffffffffffff166108fc829081150290604051600060405180830381858888f1935050505015801561013e573d6000803e3d6000fd5b508084019350818060010192505061009f565b60066001840381548110151561016357fe5b906000526020600020906003020160010160009054906101000a900473ffffffffffffffffffffffffffffffffffffffff1673ffffffffffffffffffffffffffffffffffffffff166108fc8587039081150290604051600060405180830381858888f193505050501580156101dc573d6000803e3d6000fd5b505050505050005b3480156101f057600080fd5b506101f9610512565b604051808215151515815260200191505060405180910390f35b34801561021f57600080fd5b50610228610525565b6040518080602001828103825283818151815260200191508051906020019080838360005b8381101561026857808201518184015260208101905061024d565b50505050905090810190601f1680156102955780820380516001836020036101000a031916815260200191505b509250505060405180910390f35b3480156102af57600080fd5b5061034a60048036038101908080359060200190820180359060200190808060200260200160405190810160405280939291908181526020018383602002808284378201915050505050509192919290803590602001908201803590602001908080602002602001604051908101604052809392919081815260200183836020028082843782019150505050505091929192905050506105c3565b005b34801561035857600080fd5b5061036161099b565b6040518080602001828103825283818151815260200191508051906020019080838360005b838110156103a1578082015181840152602081019050610386565b50505050905090810190601f1680156103ce5780820380516001836020036101000a031916815260200191505b509250505060405180910390f35b3480156103e857600080fd5b5061040760048036038101908080359060200190929190505050610a39565b60405180806020018473ffffffffffffffffffffffffffffffffffffffff1673ffffffffffffffffffffffffffffffffffffffff168152602001838152602001828103825285818151815260200191508051906020019080838360005b8381101561047f578082015181840152602081019050610464565b50505050905090810190601f1680156104ac5780820380516001836020036101000a031916815260200191505b5094505050505060405180910390f35b3480156104c857600080fd5b506104d1610b2a565b6040518082815260200191505060405180910390f35b3480156104f357600080fd5b506104fc610b30565b6040518082815260200191505060405180910390f35b600360019054906101000a900460ff1681565b60008054600181600116156101000203166002900480601f0160208091040260200160405190810160405280929190818152602001828054600181600116156101000203166002900480156105bb5780601f10610590576101008083540402835291602001916105bb565b820191906000526020600020905b81548152906001019060200180831161059e57829003601f168201915b505050505081565b6000806105ce610b36565b835185511415156105de57600080fd5b600760003373ffffffffffffffffffffffffffffffffffffffff1673ffffffffffffffffffffffffffffffffffffffff16815260200190815260200160002060009054906101000a900460ff16151561063657600080fd5b600860003373ffffffffffffffffffffffffffffffffffffffff1673ffffffffffffffffffffffffffffffffffffffff16815260200190815260200160002060009054906101000a900460ff161515156106f8576040517f08c379a00000000000000000000000000000000000000000000000000000000081526004018080602001828103825260128152602001807f63616e206f6e6c7920766f7465206f6e6365000000000000000000000000000081525060200191505060405180910390fd5b6001600860003373ffffffffffffffffffffffffffffffffffffffff1673ffffffffffffffffffffffffffffffffffffffff16815260200190815260200160002060006101000a81548160ff02191690831515021790555060009250600091505b84518210156107fa5760076000868481518110151561077457fe5b9060200190602002015173ffffffffffffffffffffffffffffffffffffffff1673ffffffffffffffffffffffffffffffffffffffff16815260200190815260200160002060009054906101000a900460ff1615156107d157600080fd5b83828151811015156107df57fe5b90602001906020020151830192508180600101925050610759565b606483141515610872576040517f08c379a000000000000000000000000000000000000000000000000000000000815260040180806020018281038252601d8152602001807f766f7465207063742073686f756c642073756d20757020746f2031303000000081525060200191505060405180910390fd5b6060604051908101604052803373ffffffffffffffffffffffffffffffffffffffff1681526020018681526020018581525090506009819080600181540180825580915050906001820390600052602060002090600302016000909192909190915060008201518160000160006101000a81548173ffffffffffffffffffffffffffffffffffffffff021916908373ffffffffffffffffffffffffffffffffffffffff1602179055506020820151816001019080519060200190610937929190610b6e565b506040820151816002019080519060200190610954929190610bf8565b5050505060016002600082825401925050819055506006805490506002541415610994576001600360006101000a81548160ff0219169083151502179055505b5050505050565b60018054600181600116156101000203166002900480601f016020809104026020016040519081016040528092919081815260200182805460018160011615610100020316600290048015610a315780601f10610a0657610100808354040283529160200191610a31565b820191906000526020600020905b815481529060010190602001808311610a1457829003601f168201915b505050505081565b600681815481101515610a4857fe5b9060005260206000209060030201600091509050806000018054600181600116156101000203166002900480601f016020809104026020016040519081016040528092919081815260200182805460018160011615610100020316600290048015610af45780601f10610ac957610100808354040283529160200191610af4565b820191906000526020600020905b815481529060010190602001808311610ad757829003601f168201915b5050505050908060010160009054906101000a900473ffffffffffffffffffffffffffffffffffffffff16908060020154905083565b60055481565b60045481565b606060405190810160405280600073ffffffffffffffffffffffffffffffffffffffff16815260200160608152602001606081525090565b828054828255906000526020600020908101928215610be7579160200282015b82811115610be65782518260006101000a81548173ffffffffffffffffffffffffffffffffffffffff021916908373ffffffffffffffffffffffffffffffffffffffff16021790555091602001919060010190610b8e565b5b509050610bf49190610c45565b5090565b828054828255906000526020600020908101928215610c34579160200282015b82811115610c33578251825591602001919060010190610c18565b5b509050610c419190610c88565b5090565b610c8591905b80821115610c8157600081816101000a81549073ffffffffffffffffffffffffffffffffffffffff021916905550600101610c4b565b5090565b90565b610caa91905b80821115610ca6576000816000905550600101610c8e565b5090565b905600a165627a7a7230582097343bd7b4c24bd4bc68a4eaa4904cd59d7d82039d1f563eee0c235950989cb00029",
  "source": "pragma solidity ^0.4.22;\n\ncontract ProjectManager {\n    /*\n     * A factory contract to create new SharesVoteProject\n     * and manager users / project summary for display\n     */\n    \n    struct ProjectSummary {\n        address deployedAddress;\n        string title;\n        string description;\n        uint numContributors;\n    }\n    \n    address[] public userAccounts;\n    string[] public userIds;\n    \n    mapping(string=>address)  userAccountMap;\n    mapping(string=>bool)  userIdMap; // for exist logic\n    \n    mapping(address=>string) addressUserMap;\n    mapping(address=>bool)  addressMap; // for exist logic\n    \n    ProjectSummary[] public deployedProjects;\n    \n    function register(string _userId) public {\n        require(!addressMap[msg.sender], 'ETH account already registered!');\n        require(!userIdMap[_userId], 'Username already exist!');\n        // add to username  and account arrays\n        userAccounts.push(msg.sender);\n        userIds.push(_userId);\n        // set userId -> account map\n        userAccountMap[_userId] = msg.sender;\n        // set userId exist\n        userIdMap[_userId] = true;\n        // set account -> userId map\n        addressUserMap[msg.sender] = _userId;\n        // set account address exist\n        addressMap[msg.sender] = true;\n    }\n    \n    function addressForUserId(string _userId) public view returns(address) {\n        return userAccountMap[_userId];\n    }\n    \n    function userIdForAccount(address _address) public view returns (string) {\n        return addressUserMap[_address];\n    }\n    \n    function getUserAccounts() public view returns (address[]){\n        return userAccounts;\n    }\n    \n    // args for remix testing \n    // \"test 1\",\"test 1 desc\", [\"0x7c48c0E144ade759155067502e1aaC41DF9dc28C\", \"0xC66ae400Ab10127Cc3939326146A6924Ff72D578\", \"0x0C7C1d31448B0A1f85B23DB2B11c1Efdd2a02ccA\"]\n    // \"test 11\",\"test 11 desc\", [\"0xca35b7d915458ef540ade6068dfe2f44e8fa733c\", \"0x14723a09acff6d2a60dcdf7aa4aff308fddc160c\", \"0x4b0897b0513fdc7c541b6d9d7e929c4e5364d2db\"]\n    \n    function newProject (string _title, string _description, \n        address[] holderAddresses) public {\n        \n        // make sure holder addresses are valid \n        for (uint i=0; i<holderAddresses.length; i++) {\n            require(addressMap[holderAddresses[i]], 'user invalid');\n        }\n        // end validations\n        \n        // deploy ShareVoteProject contract\n        address newDeployedProject = new SharesVoteProject(_title, _description, \n            address(this), holderAddresses);\n        \n        // create and store project summary    \n        ProjectSummary memory projectSummary = ProjectSummary({\n            deployedAddress: newDeployedProject,\n            title: _title,\n            description: _description,\n            numContributors: holderAddresses.length\n        });\n            \n        deployedProjects.push(projectSummary);\n        \n    }\n    \n    function getNumProjects() public view returns (uint){\n        return deployedProjects.length;\n    }\n\n}\n\ncontract SharesVoteProject {\n    \n    struct ShareHolder {\n        string userId;\n        address account;\n        uint share;\n    }\n    \n    struct Vote {\n        address voter;\n        address[] holders;\n        uint[] shares;\n    }\n    \n    string public title;\n    string public description;\n    uint numVotes;\n    bool voteComplete;\n    bool public shareDetermined;\n    uint public timeCreated;\n    uint public timeShareDetermined;\n    \n    ShareHolder[] public shareHolders;\n    mapping(address=>bool) uniqueHolderAddressMap;\n    mapping(address=>bool) votedMap;\n    Vote[] private votes;\n    \n    constructor (string _title, string _description, \n        address managerContract,\n        address[] _holderAddresses\n        ) public {\n        title = _title;\n        description = _description;\n        \n        // create list of ShareHolder structs by looking up userId\n        ProjectManager manager = ProjectManager(managerContract);\n        for (uint i=0; i<_holderAddresses.length; i++) {\n            address _address = _holderAddresses[i];\n            \n            require(!uniqueHolderAddressMap[_address], 'duplicated user account found');\n            uniqueHolderAddressMap[_address] = true;\n            \n            // look up userId to create holder struct\n            string memory _userId = manager.userIdForAccount(_address);\n            ShareHolder memory holder = ShareHolder({\n                userId: _userId,\n                account: _address,\n                share: 0\n            });\n            shareHolders.push(holder);\n        }\n        \n        numVotes = 0;\n        voteComplete = false;\n        shareDetermined = false;\n        timeCreated = now;\n    }\n    \n    //example\n    // [\"0xca35b7d915458ef540ade6068dfe2f44e8fa733c\", \"0x14723a09acff6d2a60dcdf7aa4aff308fddc160c\", \"0x4b0897b0513fdc7c541b6d9d7e929c4e5364d2db\"], [30, 30, 40]\n    function vote(address[] contributors, uint[] votePcts) public {\n        // require valid voter and contirbutor list\n        require(contributors.length == votePcts.length);\n        require(uniqueHolderAddressMap[msg.sender]);\n        \n        require(!votedMap[msg.sender], \"can only vote once\");\n        votedMap[msg.sender] = true;\n        \n        uint total = 0;\n        for (uint i=0; i<contributors.length; i++) {\n            require(uniqueHolderAddressMap[contributors[i]]);\n            total += votePcts[i];\n        }\n        require(total == 100, 'vote pct should sum up to 100');\n\n        Vote memory _vote = Vote({\n            voter: msg.sender,\n            holders: contributors,\n            shares: votePcts\n        });\n        votes.push(_vote);\n        numVotes += 1;\n        \n        // mark voting complete if all contributors voted\n        if (numVotes == shareHolders.length) {\n            voteComplete = true;\n        }\n    }\n    \n    // Payment and split (fallback function)\n\n    function () public payable {\n        \n        uint balance = msg.value;\n        uint spentAmt = 0;\n        uint l = shareHolders.length;\n        \n        // TODO: use share pct istead of even split :D\n        for(uint i=0; i<l-1; i++){\n            uint amt = balance/l;\n            shareHolders[i].account.transfer(amt);\n            spentAmt += amt;\n        }\n    \n        // send the rest to the last address\n        shareHolders[l-1].account.transfer(balance - spentAmt);\n\n    }\n    \n    \n    //////\n    // future features\n    \n    // - update own vote\n    \n    // - vote add new shareholder\n    \n    // -  kick shareholder\n}",
  "sourcePath": "/Users/wzhang/Documents/dev/on-chained/OnChained/ethereum/contracts/SharesVote.sol",
  "compiler": {
    "name": "solc",
    "version": "0.4.24+commit.e67f0147.Emscripten.clang"
  },
  "schemaVersion": "2.0.1",
  "updatedAt": "2018-07-18T18:57:44.427Z"
}