{
  "contractName": "SharesVoteProject",
  "abi": [
    {
      "constant": true,
      "inputs": [
        {
          "name": "",
          "type": "uint256"
        }
      ],
      "name": "shareHolderAccounts",
      "outputs": [
        {
          "name": "",
          "type": "address"
        }
      ],
      "payable": false,
      "stateMutability": "view",
      "type": "function"
    },
    {
      "constant": true,
      "inputs": [],
      "name": "shareDetermined",
      "outputs": [
        {
          "name": "",
          "type": "bool"
        }
      ],
      "payable": false,
      "stateMutability": "view",
      "type": "function"
    },
    {
      "constant": true,
      "inputs": [],
      "name": "title",
      "outputs": [
        {
          "name": "",
          "type": "string"
        }
      ],
      "payable": false,
      "stateMutability": "view",
      "type": "function"
    },
    {
      "constant": true,
      "inputs": [],
      "name": "description",
      "outputs": [
        {
          "name": "",
          "type": "string"
        }
      ],
      "payable": false,
      "stateMutability": "view",
      "type": "function"
    },
    {
      "constant": true,
      "inputs": [
        {
          "name": "",
          "type": "uint256"
        }
      ],
      "name": "shareHolders",
      "outputs": [
        {
          "name": "account",
          "type": "address"
        },
        {
          "name": "share",
          "type": "uint256"
        }
      ],
      "payable": false,
      "stateMutability": "view",
      "type": "function"
    },
    {
      "constant": true,
      "inputs": [],
      "name": "voteComplete",
      "outputs": [
        {
          "name": "",
          "type": "bool"
        }
      ],
      "payable": false,
      "stateMutability": "view",
      "type": "function"
    },
    {
      "constant": true,
      "inputs": [],
      "name": "numVotes",
      "outputs": [
        {
          "name": "",
          "type": "uint256"
        }
      ],
      "payable": false,
      "stateMutability": "view",
      "type": "function"
    },
    {
      "constant": true,
      "inputs": [],
      "name": "timeShareDetermined",
      "outputs": [
        {
          "name": "",
          "type": "uint256"
        }
      ],
      "payable": false,
      "stateMutability": "view",
      "type": "function"
    },
    {
      "constant": true,
      "inputs": [],
      "name": "timeCreated",
      "outputs": [
        {
          "name": "",
          "type": "uint256"
        }
      ],
      "payable": false,
      "stateMutability": "view",
      "type": "function"
    },
    {
      "inputs": [
        {
          "name": "_title",
          "type": "string"
        },
        {
          "name": "_description",
          "type": "string"
        },
        {
          "name": "_holderAddresses",
          "type": "address[]"
        }
      ],
      "payable": false,
      "stateMutability": "nonpayable",
      "type": "constructor"
    },
    {
      "constant": true,
      "inputs": [],
      "name": "getShareHolderAccounts",
      "outputs": [
        {
          "name": "",
          "type": "address[]"
        }
      ],
      "payable": false,
      "stateMutability": "view",
      "type": "function"
    },
    {
      "constant": true,
      "inputs": [
        {
          "name": "holderAddress",
          "type": "address"
        }
      ],
      "name": "getVotedStatus",
      "outputs": [
        {
          "name": "",
          "type": "bool"
        }
      ],
      "payable": false,
      "stateMutability": "view",
      "type": "function"
    },
    {
      "constant": false,
      "inputs": [
        {
          "name": "contributors",
          "type": "address[]"
        },
        {
          "name": "votePcts",
          "type": "uint256[]"
        }
      ],
      "name": "vote",
      "outputs": [],
      "payable": false,
      "stateMutability": "nonpayable",
      "type": "function"
    },
    {
      "constant": false,
      "inputs": [],
      "name": "finalizeShares",
      "outputs": [],
      "payable": false,
      "stateMutability": "nonpayable",
      "type": "function"
    },
    {
      "constant": true,
      "inputs": [
        {
          "name": "holder",
          "type": "address"
        }
      ],
      "name": "getFinalShare",
      "outputs": [
        {
          "name": "",
          "type": "uint256"
        }
      ],
      "payable": false,
      "stateMutability": "view",
      "type": "function"
    },
    {
      "constant": true,
      "inputs": [
        {
          "name": "holder",
          "type": "address"
        }
      ],
      "name": "getShareSum",
      "outputs": [
        {
          "name": "",
          "type": "uint256"
        }
      ],
      "payable": false,
      "stateMutability": "view",
      "type": "function"
    },
    {
      "constant": false,
      "inputs": [],
      "name": "pay",
      "outputs": [],
      "payable": true,
      "stateMutability": "payable",
      "type": "function"
    }
  ],
  "bytecode": "0x60806040523480156200001157600080fd5b5060405162001982380380620019828339810180604052810190808051820192919060200180518201929190602001805182019291905050506000806200005762000343565b85600090805190602001906200006f92919062000373565b5084600190805190602001906200008892919062000373565b50600092505b8351831015620002f2578383815181101515620000a757fe5b906020019060200201519150600860008373ffffffffffffffffffffffffffffffffffffffff1673ffffffffffffffffffffffffffffffffffffffff16815260200190815260200160002060009054906101000a900460ff1615151562000176576040517f08c379a000000000000000000000000000000000000000000000000000000000815260040180806020018281038252601d8152602001807f6475706c6963617465642075736572206163636f756e7420666f756e6400000081525060200191505060405180910390fd5b6001600860008473ffffffffffffffffffffffffffffffffffffffff1673ffffffffffffffffffffffffffffffffffffffff16815260200190815260200160002060006101000a81548160ff02191690831515021790555060078290806001815401808255809150509060018203906000526020600020016000909192909190916101000a81548173ffffffffffffffffffffffffffffffffffffffff021916908373ffffffffffffffffffffffffffffffffffffffff1602179055505060408051908101604052808373ffffffffffffffffffffffffffffffffffffffff168152602001600081525090506006819080600181540180825580915050906001820390600052602060002090600202016000909192909190915060008201518160000160006101000a81548173ffffffffffffffffffffffffffffffffffffffff021916908373ffffffffffffffffffffffffffffffffffffffff1602179055506020820151816001015550505082806001019350506200008e565b60006002819055506000600360006101000a81548160ff0219169083151502179055506000600360016101000a81548160ff0219169083151502179055504260048190555050505050505062000422565b6040805190810160405280600073ffffffffffffffffffffffffffffffffffffffff168152602001600081525090565b828054600181600116156101000203166002900490600052602060002090601f016020900481019282601f10620003b657805160ff1916838001178555620003e7565b82800160010185558215620003e7579182015b82811115620003e6578251825591602001919060010190620003c9565b5b509050620003f69190620003fa565b5090565b6200041f91905b808211156200041b57600081600090555060010162000401565b5090565b90565b61155080620004326000396000f3006080604052600436106100e6576000357c0100000000000000000000000000000000000000000000000000000000900463ffffffff168063162ee797146100eb5780631b9265b8146101425780633afdd91d1461014c5780633dd30aba146101b95780634a79d50c146101e8578063583180d9146102785780636def5e93146102d35780636f816a201461032a5780637284e416146103d35780637427a40c146104635780639df4cad0146104d7578063a3bef4d714610506578063b343d96814610531578063e1c0d3271461059d578063e1fc8d79146105c8578063f1653f6e146105df575b600080fd5b3480156100f757600080fd5b5061012c600480360381019080803573ffffffffffffffffffffffffffffffffffffffff16906020019092919050505061060a565b6040518082815260200191505060405180910390f35b61014a610653565b005b34801561015857600080fd5b506101776004803603810190808035906020019092919050505061084e565b604051808273ffffffffffffffffffffffffffffffffffffffff1673ffffffffffffffffffffffffffffffffffffffff16815260200191505060405180910390f35b3480156101c557600080fd5b506101ce61088c565b604051808215151515815260200191505060405180910390f35b3480156101f457600080fd5b506101fd61089f565b6040518080602001828103825283818151815260200191508051906020019080838360005b8381101561023d578082015181840152602081019050610222565b50505050905090810190601f16801561026a5780820380516001836020036101000a031916815260200191505b509250505060405180910390f35b34801561028457600080fd5b506102b9600480360381019080803573ffffffffffffffffffffffffffffffffffffffff16906020019092919050505061093d565b604051808215151515815260200191505060405180910390f35b3480156102df57600080fd5b50610314600480360381019080803573ffffffffffffffffffffffffffffffffffffffff16906020019092919050505061099a565b6040518082815260200191505060405180910390f35b34801561033657600080fd5b506103d160048036038101908080359060200190820180359060200190808060200260200160405190810160405280939291908181526020018383602002808284378201915050505050509192919290803590602001908201803590602001908080602002602001604051908101604052809392919081815260200183836020028082843782019150505050505091929192905050506109e3565b005b3480156103df57600080fd5b506103e8610dbb565b6040518080602001828103825283818151815260200191508051906020019080838360005b8381101561042857808201518184015260208101905061040d565b50505050905090810190601f1680156104555780820380516001836020036101000a031916815260200191505b509250505060405180910390f35b34801561046f57600080fd5b5061048e60048036038101908080359060200190929190505050610e59565b604051808373ffffffffffffffffffffffffffffffffffffffff1673ffffffffffffffffffffffffffffffffffffffff1681526020018281526020019250505060405180910390f35b3480156104e357600080fd5b506104ec610eac565b604051808215151515815260200191505060405180910390f35b34801561051257600080fd5b5061051b610ebf565b6040518082815260200191505060405180910390f35b34801561053d57600080fd5b50610546610ec5565b6040518080602001828103825283818151815260200191508051906020019060200280838360005b8381101561058957808201518184015260208101905061056e565b505050509050019250505060405180910390f35b3480156105a957600080fd5b506105b2610f53565b6040518082815260200191505060405180910390f35b3480156105d457600080fd5b506105dd610f59565b005b3480156105eb57600080fd5b506105f4611377565b6040518082815260200191505060405180910390f35b6000600a60008373ffffffffffffffffffffffffffffffffffffffff1673ffffffffffffffffffffffffffffffffffffffff168152602001908152602001600020549050919050565b60008060008061066161137d565b6000349550600094506006805490509350600092505b600184038310156107ba5760068381548110151561069157fe5b90600052602060002090600202016040805190810160405290816000820160009054906101000a900473ffffffffffffffffffffffffffffffffffffffff1673ffffffffffffffffffffffffffffffffffffffff1673ffffffffffffffffffffffffffffffffffffffff168152602001600182015481525050915060648260200151870281151561071e57fe5b04905060068381548110151561073057fe5b906000526020600020906002020160000160009054906101000a900473ffffffffffffffffffffffffffffffffffffffff1673ffffffffffffffffffffffffffffffffffffffff166108fc829081150290604051600060405180830381858888f193505050501580156107a7573d6000803e3d6000fd5b5080850194508280600101935050610677565b6006600185038154811015156107cc57fe5b906000526020600020906002020160000160009054906101000a900473ffffffffffffffffffffffffffffffffffffffff1673ffffffffffffffffffffffffffffffffffffffff166108fc8688039081150290604051600060405180830381858888f19350505050158015610845573d6000803e3d6000fd5b50505050505050565b60078181548110151561085d57fe5b906000526020600020016000915054906101000a900473ffffffffffffffffffffffffffffffffffffffff1681565b600360019054906101000a900460ff1681565b60008054600181600116156101000203166002900480601f0160208091040260200160405190810160405280929190818152602001828054600181600116156101000203166002900480156109355780601f1061090a57610100808354040283529160200191610935565b820191906000526020600020905b81548152906001019060200180831161091857829003601f168201915b505050505081565b600060011515600960008473ffffffffffffffffffffffffffffffffffffffff1673ffffffffffffffffffffffffffffffffffffffff16815260200190815260200160002060009054906101000a900460ff161515149050919050565b6000600c60008373ffffffffffffffffffffffffffffffffffffffff1673ffffffffffffffffffffffffffffffffffffffff168152602001908152602001600020549050919050565b6000806109ee6113ad565b835185511415156109fe57600080fd5b600860003373ffffffffffffffffffffffffffffffffffffffff1673ffffffffffffffffffffffffffffffffffffffff16815260200190815260200160002060009054906101000a900460ff161515610a5657600080fd5b600960003373ffffffffffffffffffffffffffffffffffffffff1673ffffffffffffffffffffffffffffffffffffffff16815260200190815260200160002060009054906101000a900460ff16151515610b18576040517f08c379a00000000000000000000000000000000000000000000000000000000081526004018080602001828103825260128152602001807f63616e206f6e6c7920766f7465206f6e6365000000000000000000000000000081525060200191505060405180910390fd5b6001600960003373ffffffffffffffffffffffffffffffffffffffff1673ffffffffffffffffffffffffffffffffffffffff16815260200190815260200160002060006101000a81548160ff02191690831515021790555060009250600091505b8451821015610c1a57600860008684815181101515610b9457fe5b9060200190602002015173ffffffffffffffffffffffffffffffffffffffff1673ffffffffffffffffffffffffffffffffffffffff16815260200190815260200160002060009054906101000a900460ff161515610bf157600080fd5b8382815181101515610bff57fe5b90602001906020020151830192508180600101925050610b79565b606483141515610c92576040517f08c379a000000000000000000000000000000000000000000000000000000000815260040180806020018281038252601d8152602001807f766f7465207063742073686f756c642073756d20757020746f2031303000000081525060200191505060405180910390fd5b6060604051908101604052803373ffffffffffffffffffffffffffffffffffffffff168152602001868152602001858152509050600b819080600181540180825580915050906001820390600052602060002090600302016000909192909190915060008201518160000160006101000a81548173ffffffffffffffffffffffffffffffffffffffff021916908373ffffffffffffffffffffffffffffffffffffffff1602179055506020820151816001019080519060200190610d579291906113e5565b506040820151816002019080519060200190610d7492919061146f565b5050505060016002600082825401925050819055506006805490506002541415610db4576001600360006101000a81548160ff0219169083151502179055505b5050505050565b60018054600181600116156101000203166002900480601f016020809104026020016040519081016040528092919081815260200182805460018160011615610100020316600290048015610e515780601f10610e2657610100808354040283529160200191610e51565b820191906000526020600020905b815481529060010190602001808311610e3457829003601f168201915b505050505081565b600681815481101515610e6857fe5b90600052602060002090600202016000915090508060000160009054906101000a900473ffffffffffffffffffffffffffffffffffffffff16908060010154905082565b600360009054906101000a900460ff1681565b60025481565b60606007805480602002602001604051908101604052809291908181526020018280548015610f4957602002820191906000526020600020905b8160009054906101000a900473ffffffffffffffffffffffffffffffffffffffff1673ffffffffffffffffffffffffffffffffffffffff1681526020019060010190808311610eff575b5050505050905090565b60055481565b600080600080600080600080600360009054906101000a900460ff161515610fe9576040517f08c379a00000000000000000000000000000000000000000000000000000000081526004018080602001828103825260118152602001807f7265717569726520616c6c20766f74657300000000000000000000000000000081525060200191505060405180910390fd5b600960003373ffffffffffffffffffffffffffffffffffffffff1673ffffffffffffffffffffffffffffffffffffffff16815260200190815260200160002060009054906101000a900460ff16151561104157600080fd5b600097505b600b8054905088101561117b57600096505b600b8881548110151561106757fe5b90600052602060002090600302016001018054905087101561116e57600b8881548110151561109257fe5b9060005260206000209060030201600201878154811015156110b057fe5b9060005260206000200154955085600c6000600b8b8154811015156110d157fe5b90600052602060002090600302016001018a8154811015156110ef57fe5b9060005260206000200160009054906101000a900473ffffffffffffffffffffffffffffffffffffffff1673ffffffffffffffffffffffffffffffffffffffff1673ffffffffffffffffffffffffffffffffffffffff168152602001908152602001600020600082825401925050819055508680600101975050611058565b8780600101985050611046565b60009450600093505b6001600680549050038410156112ac576006848154811015156111a357fe5b90600052602060002090600202019250600680549050600c60008560000160009054906101000a900473ffffffffffffffffffffffffffffffffffffffff1673ffffffffffffffffffffffffffffffffffffffff1673ffffffffffffffffffffffffffffffffffffffff1681526020019081526020016000205481151561122657fe5b04915081836001018190555081600a60008560000160009054906101000a900473ffffffffffffffffffffffffffffffffffffffff1673ffffffffffffffffffffffffffffffffffffffff1673ffffffffffffffffffffffffffffffffffffffff1681526020019081526020016000208190555081850194508380600101945050611184565b60066001600680549050038154811015156112c357fe5b906000526020600020906002020190508460640381600101819055508060010154600a60008360000160009054906101000a900473ffffffffffffffffffffffffffffffffffffffff1673ffffffffffffffffffffffffffffffffffffffff1673ffffffffffffffffffffffffffffffffffffffff168152602001908152602001600020819055506001600360016101000a81548160ff021916908315150217905550426005819055505050505050505050565b60045481565b6040805190810160405280600073ffffffffffffffffffffffffffffffffffffffff168152602001600081525090565b606060405190810160405280600073ffffffffffffffffffffffffffffffffffffffff16815260200160608152602001606081525090565b82805482825590600052602060002090810192821561145e579160200282015b8281111561145d5782518260006101000a81548173ffffffffffffffffffffffffffffffffffffffff021916908373ffffffffffffffffffffffffffffffffffffffff16021790555091602001919060010190611405565b5b50905061146b91906114bc565b5090565b8280548282559060005260206000209081019282156114ab579160200282015b828111156114aa57825182559160200191906001019061148f565b5b5090506114b891906114ff565b5090565b6114fc91905b808211156114f857600081816101000a81549073ffffffffffffffffffffffffffffffffffffffff0219169055506001016114c2565b5090565b90565b61152191905b8082111561151d576000816000905550600101611505565b5090565b905600a165627a7a72305820b1d4342a21fae169b6234cbc048cd18cbf36faf2f4c9c256ef737238bbb89c7a0029",
  "source": "pragma solidity ^0.4.24;\n\ncontract ProjectManager {\n    /*\n     * A factory contract to create new SharesVoteProject\n     * and manager users / project summary for display\n     */\n    \n    struct ProjectSummary {\n        address deployedAddress;\n        string title;\n        string description;\n        uint numContributors;\n        uint timeCreated;\n    }\n    \n    address[] public userAccounts;\n    string[] public userIds;\n    \n    mapping(string=>address)  userAccountMap;\n    mapping(string=>bool)  userIdMap; // for exist logic\n    \n    mapping(address=>string) addressUserMap;\n    mapping(address=>bool)  addressMap; // for exist logic\n    \n    ProjectSummary[] public deployedProjects;\n    \n    function register(string _userId) public {\n        require(!addressMap[msg.sender], 'ETH account already registered!');\n        require(!userIdMap[_userId], 'Username already exist!');\n        // add to username  and account arrays\n        userAccounts.push(msg.sender);\n        userIds.push(_userId);\n        // set userId -> account map\n        userAccountMap[_userId] = msg.sender;\n        // set userId exist\n        userIdMap[_userId] = true;\n        // set account -> userId map\n        addressUserMap[msg.sender] = _userId;\n        // set account address exist\n        addressMap[msg.sender] = true;\n    }\n    \n    function addressForUserId(string _userId) public view returns(address) {\n        return userAccountMap[_userId];\n    }\n    \n    function userIdForAccount(address _address) public view returns (string) {\n        return addressUserMap[_address];\n    }\n    \n    function getUserAccounts() public view returns (address[]){\n        return userAccounts;\n    }\n    \n    // args for remix testing \n    // \"test 1\",\"test 1 desc\", [\"0x7c48c0E144ade759155067502e1aaC41DF9dc28C\", \"0xC66ae400Ab10127Cc3939326146A6924Ff72D578\", \"0x0C7C1d31448B0A1f85B23DB2B11c1Efdd2a02ccA\"]\n    \n    // \"test 2\",\"test 12222 desc\", [\"0xca35b7d915458ef540ade6068dfe2f44e8fa733c\", \"0x14723a09acff6d2a60dcdf7aa4aff308fddc160c\", \"0x4b0897b0513fdc7c541b6d9d7e929c4e5364d2db\"]\n    \n    // short\n    // \"test project 2\",\"Test description here..\", [\"0x7c48c0E144ade759155067502e1aaC41DF9dc28C\", \"0xC66ae400Ab10127Cc3939326146A6924Ff72D578\"]\n    \n    \n    function newProject (string _title, string _description, \n        address[] holderAddresses) public {\n        \n        // make sure holder addresses are valid \n        for (uint i=0; i<holderAddresses.length; i++) {\n            require(addressMap[holderAddresses[i]], 'user invalid');\n        }\n        // end validations\n        \n        // deploy ShareVoteProject contract\n        address newDeployedProject = new SharesVoteProject(\n            _title, _description, \n            // address(this), \n            holderAddresses);\n        \n        // create and store project summary    \n        ProjectSummary memory projectSummary = ProjectSummary({\n            deployedAddress: newDeployedProject,\n            title: _title,\n            description: _description,\n            numContributors: holderAddresses.length,\n            timeCreated: now\n        });\n            \n        deployedProjects.push(projectSummary);\n        \n    }\n    \n    function getNumProjects() public view returns (uint){\n        return deployedProjects.length;\n    }\n\n}\n\ncontract SharesVoteProject {\n    \n    struct ShareHolder {\n        // string userId;\n        address account;\n        uint share;\n    }\n    \n    struct Vote {\n        address voter;\n        address[] holders;\n        uint[] shares;\n    }\n    \n    string public title;\n    string public description;\n    uint public numVotes;\n    bool public voteComplete;\n    bool public shareDetermined;\n    uint public timeCreated;\n    uint public timeShareDetermined;\n    \n    ShareHolder[] public shareHolders;\n    address[] public shareHolderAccounts;\n    mapping(address=>bool) uniqueHolderAddressMap;\n    mapping(address=>bool) votedMap;\n    mapping(address=>uint) finalShareMap;\n    \n    Vote[] private votes;\n    mapping(address=>uint) shareSum;\n    \n    constructor (string _title, string _description, \n        // address managerContract,\n        address[] _holderAddresses\n        ) public {\n        title = _title;\n        description = _description;\n        \n        // create list of ShareHolder structs by looking up userId\n        // ProjectManager manager = ProjectManager(managerContract);\n        for (uint i=0; i<_holderAddresses.length; i++) {\n            address _address = _holderAddresses[i];\n            \n            require(!uniqueHolderAddressMap[_address], 'duplicated user account found');\n            uniqueHolderAddressMap[_address] = true;\n            shareHolderAccounts.push(_address);\n            \n            // look up userId to create holder struct\n            // string memory _userId = manager.userIdForAccount(_address);\n            ShareHolder memory holder = ShareHolder({\n                // userId: _userId,\n                account: _address,\n                share: 0\n            });\n            shareHolders.push(holder);\n        }\n        \n        numVotes = 0;\n        voteComplete = false;\n        shareDetermined = false;\n        timeCreated = now;\n    }\n    \n    function getShareHolderAccounts() public view returns(address[]){\n        return shareHolderAccounts;\n    }\n    \n    function getVotedStatus(address holderAddress) public view returns(bool){\n        return votedMap[holderAddress] == true;\n    }\n    \n    //example\n    // [\"0xca35b7d915458ef540ade6068dfe2f44e8fa733c\", \"0x14723a09acff6d2a60dcdf7aa4aff308fddc160c\", \"0x4b0897b0513fdc7c541b6d9d7e929c4e5364d2db\"], [30, 30, 40]\n    // [\"0xca35b7d915458ef540ade6068dfe2f44e8fa733c\", \"0x14723a09acff6d2a60dcdf7aa4aff308fddc160c\", \"0x4b0897b0513fdc7c541b6d9d7e929c4e5364d2db\"], [30, 20, 50]\n    // [\"0xca35b7d915458ef540ade6068dfe2f44e8fa733c\", \"0x14723a09acff6d2a60dcdf7aa4aff308fddc160c\", \"0x4b0897b0513fdc7c541b6d9d7e929c4e5364d2db\"], [20, 40, 40]\n    \n    // [\"0x7c48c0E144ade759155067502e1aaC41DF9dc28C\", \"0xC66ae400Ab10127Cc3939326146A6924Ff72D578\"], [40, 60]\n    // [\"0x7c48c0E144ade759155067502e1aaC41DF9dc28C\", \"0xC66ae400Ab10127Cc3939326146A6924Ff72D578\"], [50, 50]\n    \n    \n    function vote(address[] contributors, uint[] votePcts) public {\n        // require valid voter and contirbutor list\n        require(contributors.length == votePcts.length);\n        require(uniqueHolderAddressMap[msg.sender]);\n        \n        require(!votedMap[msg.sender], \"can only vote once\");\n        votedMap[msg.sender] = true;\n        \n        uint total = 0;\n        for (uint i=0; i<contributors.length; i++) {\n            require(uniqueHolderAddressMap[contributors[i]]);\n            total += votePcts[i];\n        }\n        require(total == 100, 'vote pct should sum up to 100');\n\n        Vote memory _vote = Vote({\n            voter: msg.sender,\n            holders: contributors,\n            shares: votePcts\n        });\n        votes.push(_vote);\n        \n        numVotes += 1;\n        \n        // mark voting complete if all contributors voted\n        if (numVotes == shareHolders.length) {\n            voteComplete = true;\n        }\n    }\n    \n    // Payment and split (fallback function)\n    \n    function finalizeShares() public {\n        \n        require(voteComplete, \"require all votes\");\n        require(votedMap[msg.sender]);\n        \n        for (uint i=0; i<votes.length; i++) {\n            for (uint j=0; j<votes[i].holders.length; j++) {\n                uint shareWithPrecision = votes[i].shares[j] ;\n                shareSum[votes[i].holders[j]] += shareWithPrecision;\n            }\n        }\n        uint currentShareTotal = 0;\n        for (uint k=0; k<shareHolders.length - 1; k++) {\n            ShareHolder storage holder = shareHolders[k];\n            uint curShare = shareSum[holder.account] / shareHolders.length;\n            holder.share = curShare;\n            finalShareMap[holder.account] = curShare;\n            currentShareTotal += curShare;\n        }\n        ShareHolder storage lastHolder = shareHolders[shareHolders.length - 1];\n        lastHolder.share = 100 - currentShareTotal;\n        finalShareMap[lastHolder.account] = lastHolder.share;\n        \n        shareDetermined = true;\n        timeShareDetermined = now;\n        \n        // TODO: pageRank implementation\n    }\n    \n    function getFinalShare(address holder) public view returns (uint){\n        return finalShareMap[holder];\n    }\n    \n    function getShareSum(address holder) public view returns (uint){\n        return shareSum[holder];\n    }\n    \n    function pay() public payable {\n        \n        uint balance = msg.value;\n        uint spentAmt = 0;\n        uint l = shareHolders.length;\n        \n        // TODO: use share pct istead of even split :D\n        for(uint i=0; i<l-1; i++){\n            ShareHolder memory curHolder = shareHolders[i];\n            uint amt = balance * curHolder.share / 100;\n            shareHolders[i].account.transfer(amt);\n            spentAmt += amt;\n        }\n    \n        // send the rest to the last address\n        shareHolders[l-1].account.transfer(balance - spentAmt);\n\n    }\n    \n    \n    //////\n    // future features\n    \n    // - update own vote\n    \n    // - vote add new shareholder\n    \n    // -  kick shareholder\n}",
  "sourcePath": "/Users/wzhang/Documents/dev/on-chained/OnChained/ethereum/contracts/SharesVote.sol",
  "compiler": {
    "name": "solc",
    "version": "0.4.24+commit.e67f0147.Emscripten.clang"
  },
  "schemaVersion": "2.0.1",
  "updatedAt": "2018-07-19T04:56:32.817Z"
}